:020000040800F2
:10000000280A00206102000809410008113A00088E
:1000100005410008251E0008B94B0008000000003B
:100020000000000000000000000000007342000813
:10003000291E000800000000714200080D4300085E
:100040007B0200087B0200087B0200087B0200089C
:100050007B0200087B0200087B0200087B0200088C
:100060007B0200087B0200087B0200087B0200087C
:100070007B0200087B0200087B0200087B0200086C
:100080007B0200087B0200087B02000800000000E1
:100090000000000000000000000000007B020008DB
:1000A0007B020008D94300087B0200087B0200089D
:1000B000E94300087B0200087B0200087B0200087D
:1000C0007B0200087B0200087B0200087B0200081C
:1000D0007B020008A94B00087B020008000000001A
:1000E0007B0200087B0200087B0200080000000081
:1000F0000000000000000000000000007B0200087B
:10010000000000007B0200087B0200087B02000860
:1001100000000000000000000000000000000000DF
:100120007B0200087B0200087B0200087B020008BB
:100130007B0200080000000000000000000000003A
:100140000000000000000000000000007B0200082A
:100150007B0200087B0200087B0200087B0200088B
:100160007B0200087B020008000000000000000085
:10017000000000000000000000000000000000007F
:10018000000000007B0200080000000000000000EA
:100190007B0200087B02000800F002F800F051F832
:1001A0000AA090E8000C82448344AAF10107DA45D2
:1001B00001D100F046F8AFF2090EBAE80F0013F0D3
:1001C000010F18BFFB1A43F001031847549A0000AF
:1001D000749A0000103A24BF78C878C1FAD8520740
:1001E00024BF30C830C144BF04680C6070470000B1
:1001F0000023002400250026103A28BF78C1FBD830
:10020000520728BF30C148BF0B607047662908F00D
:10021000DA85002070471FB508F0CBFD9DE803008C
:1002200000F0C0FF00F054FC04000020002108F0A2
:100230003BF8E06000F068FD1FBD10B500F0CDFD9B
:1002400010BD00F035FE1146FFF7E5FF06F048FD52
:1002500000F03AFF03B4FFF7F0FF03BC01F034F9FC
:100260000948804709480047FEE7FEE7FEE7FEE74A
:10027000FEE7FEE7FEE7FEE7FEE7FEE70448054986
:10028000054A064B70470000C54300089901000865
:1002900028040020280A0020280600202806002024
:1002A00053EA020C00F069802DE9F04B4FF0000694
:1002B000002B1FBFB3FA83F503FA05F424FA05F601
:1002C0005E4012BF1643B2FA82F502FA05F4C5F198
:1002D00020051EBF22FA05FC44EA0C04203556EA2C
:1002E000044C4FEA144418BF641C4FF000084FF050
:1002F0000009904271EB030C39D3002919BFB1FA00
:1003000081F701FA07F6B0FA80F700FA07F6C7F1AD
:1003100020071EBF20FA07FC46EA0C062037B6FB72
:10032000F4FCA7EB0507103F07F01F0BCBF12006ED
:100330000CFA0BFB2CFA06F644BFB3460026202F1E
:10034000A4BF5E464FF0000B5BEA060C08BF4FF0FF
:10035000010B19EB0B09ABFB027C48EB0608C01B39
:1003600006FB02CC0BFB03CC71EB0C01C1E70B4687
:10037000024641464846BDE8F08B13B54FF00000F9
:100380004FF00001AFF30080BDE81C40704710B58E
:100390004C1084EA530404D54042C1F1000138BF37
:1003A000491E1B4204D55242C3F1000338BF5B1EF5
:1003B000FFF776FF14F0804F04D04042C1F10001F6
:1003C00038BF491E14F0004F04D05242C3F100035D
:1003D00038BF5B1E10BD00000FB4044910B503AA5E
:1003E000029800F041FB10BC5DF814FB1C030020D8
:1003F0002DE9F05F894604464FF0000ADFF874B13A
:10040000FB44C0F820A02046E1688847002874D04B
:10041000252806D0D4E901219047206A401C20629B
:10042000F1E700265F462046E16888472028054618
:1004300007DB312D05D2781910F8200C08B10643DE
:10044000F1E7B00701D526F00406C4F81CA0002788
:10045000C4F818A02A2D09D0284605F0A9F838B309
:1004600004EB8708303DC8F8185019E059F8041B10
:10047000204604EB87029161E1688847012F054619
:1004800018D1E069002820DA26F020061DE0D8F80F
:10049000180000EB800005EB40003038C8F8180069
:1004A0002046E1688847054605F082F80028EED12D
:1004B000012F0AD02E2D08D12046E16888477F1CE5
:1004C0000546022F46F02006C4DBA069002803DAA7
:1004D000404246F00106A061F00701D026F0100668
:1004E0006C2D0BD0682D09D04C2D39D06A2D35D00C
:1004F000742D35D07A2D33D016E038E0E1682F46E0
:1005000020468847B842054609D16C2F26D04FF4C3
:100510008060E168064320468847054604E06C2F6A
:100520001AD04FF4807006430DB3A5F1410019288D
:1005300002D8203546F400664A4629462046266001
:100540004E46FFF763FE80B101280BD0F61D26F062
:10055000070000F1080956E74020E4E78020D8E7CB
:100560000020D6E706F104094DE7284652E7206A45
:10057000BDE8F09F2696000040EA010310B59B07F6
:100580000FD1042A0DD310C808C9121F9C42F8D0FD
:1005900020BA19BA884201D9012010BD4FF0FF30AE
:1005A00010BD1AB1D30703D0521C07E0002010BDC4
:1005B00010F8013B11F8014B1B1B07D110F8013B50
:1005C00011F8014B1B1B01D1921EF1D1184610BD31
:1005D00002F0FF0343EA032242EA024200F058BA63
:1005E0004FF0000200B5134694469646203922BFCC
:1005F000A0E80C50A0E80C50B1F12001BFF4F7AF17
:10060000090728BFA0E80C5048BF0CC05DF804EBF8
:10061000890028BF40F8042B08BF704748BF20F866
:10062000022B11F0804F18BF00F8012B7047704764
:100630007047704710B500F04FFA006810BD10B554
:10064000044600F049FA046010BD70472DE9FF4FE1
:100650000C461E464FF0FF378BB0D2E90001DDF8A3
:1006600060800A908A46C1F30A5505B93D460021CB
:1006700008464FF00000BAF1000F00F4400005DA20
:1006800000EB80004FF4400101EA50004FEA90591E
:10069000B9F1010F00DDB9460A9850EA4A000ED0C0
:1006A00044F61050A5F2FF3545432F14B8F1000F62
:1006B0001ED07542291E1EDDC9F100021CE0B8F1F2
:1006C000010F4FF0000001D0302103E0F24305E0BC
:1006D0002154401CB042FBDB304600220021215453
:1006E0000B99C1F80880C1E900200FB0BDE8F08F78
:1006F000BD1B6D1CDEE74A4600DA694206A800F021
:100700008DFA06AB93E8070003AB83E80700504679
:100710000A9900F071FF8DE80700A0F500501F381E
:1007200000900398002D0ADD42F21F014A4608445A
:10073000002303A90390684601F0DAF909E0A0F567
:1007400000504A461F38002303A90390684601F071
:10075000E4F98DE807000004000C03D04FF0FF30EF
:10076000410800E01046B8F1000F03D000220092CB
:1007700015461EE0751E05D400F0B2F93032625500
:100780006D1EF9D5B3460122084302D000227F1C1A
:1007900004E02078302801D100227F1E002A09972A
:1007A00084D01DE0112D07DA00F09AF9303262553D
:1007B0006D1C50EA0102F5D1084302D00098C8B17F
:1007C0000EE00021681E05E0235C625C6354225445
:1007D000401E491C8142F7DBAB46A81B401E099016
:1007E000002004F80B000B98099AC0F80880C0E9B3
:1007F000002B7AE711264FF0000857E72DE9F04F5C
:1008000088460446D21D22F0070191B0D1E90001CB
:10081000CDE90A0104F0D2F902460B98C00F01D0CD
:100820002D2007E02068810701D52B2002E0202140
:1008300001EAC000032A099001D0072A05DB03461C
:100840004146204600F0AAF90BE12078800601D548
:10085000E06900E00620B8F1650F814606D0B8F1E6
:10086000660F18D0B8F1670F70D131E00020B9F1F0
:10087000110F009001DB112301E009F101030AAA25
:1008800001A90CA8FFF7E2FEDDE90C70002609F1D2
:100890000105834647E001204B4600904FF000479A
:1008A0000AAA01A90CA8FFF7D1FEDDE90DB00C9949
:1008B0005D46002610B909F101000D18B9EB0500DD
:1008C00003D4C0F1FF3609F10105A5EB09002BE0C7
:1008D000B9F1010F01DA4FF001090020B9F1110F50
:1008E0000090484601DD112300E003460AAA01A951
:1008F0000CA8FFF7ABFEDDE90C704D4600268346E1
:10090000207800070AD4AB4500DA5D4601A8012D26
:1009100004DD411911F8011C302907D04F4502DAD6
:1009200017F1040F04DA012082460FE06D1EEEE796
:10093000002F02DCED1B3E4403E0781CA84200DDE2
:100940007D1CB81B00F1010A4FF00047207800071A
:1009500003D4AA4501DB4FF0FF3A0021B7F1004F65
:100960000DF143088DF8431024D002202B23002FD3
:1009700001DA7F422D230A21021EA0F1010000DCD2
:100980005FB197FBF1FC97FBF1F201FB1C7C174672
:100990000CF1300C08F801CDEEE7A8F1010003706E
:1009A0002188090501D5452100E06521A0F1010854
:1009B00000F8011C09980FA9A1EB0807FF1D00B161
:1009C0000120411901EBEA70A1693844081A401E60
:1009D000A0612078C00602D42046AFF300800998B9
:1009E00028B1D4E901219047206A401C2062207878
:1009F000C00622D52046AFF300801EE0002E04DBA7
:100A0000B34502DD01A8805D00E03020D4E901217A
:100A10009047206A401C2062761CAAF101005FEA20
:100A2000000A0AD100F054F8C0680168405CD4E9BB
:100A300001219047206A401C2062281EA5F1010573
:100A4000DCDC07E0D4E9012118F8010B9047206AAB
:100A5000401C2062381EA7F10107F3DC2046AFF3EB
:100A60000080032011B041E6074B70B50D467B4472
:100A700000F081F80446284600F042F910B14FF02A
:100A8000FF3070BD204670BD4F5A00004FF000028D
:100A90000429C0F0128010F0030C3FF4A3ADCCF198
:100AA000040CBCF1020F18BF00F8012BA8BF20F8FE
:100AB000022BA1EB0C01FFF795BD5FEAC17C24BFBF
:100AC00000F8012B00F8012B48BF00F8012B7047FC
:100AD00000487047E403002000487047C40300202A
:100AE00030B5B0F10A024FEA900E71F100034EEA00
:100AF000817EB0EB0E0061EB91014FEA101E4EEAD1
:100B0000017E10EB0E0041EB11114FEA102E4EEA60
:100B1000016E10EB0E0041EB11214FEA104E4EEA30
:100B2000014E10EB0E0041EB1141401841F1000164
:100B30004FEAD00040EA41704FEAD10110EB800546
:100B40004FEA810444EA907444EB01046D1944EBCC
:100B50000404521BA3414FF0000348BF0A3200D5E2
:100B600030BD401C41F1000130BD000001694A1C4C
:100B700002610878704700B58FB0CDE901310021DE
:100B8000059105497944CDE9031011466846FFF700
:100B90002FFC0FB000BD0000E5FFFFFF2DE9F04185
:100BA0001F46044603260168072A01F4006004DB9F
:100BB00008B116A505E016A503E008B115A500E0EB
:100BC00015A521F010002060A069C01EA0610FB122
:100BD000401EA0612046AFF300804FB1D4E901214F
:100BE00038469047206A401C2062C01C206206E004
:100BF000206AFAE7D4E9012115F8010B9047761E27
:100C0000F8D22046AFF30080BDE8F0814E414E009F
:100C10006E616E00494E4600696E66002DE9F04730
:100C2000814616468AB0354878440DC88DE80D00D7
:100C300032487844801C03AC0DC884E80D0041F6AE
:100C40009B300844372190FBF1F290FBF1F5A5F1C0
:100C5000800501FB12041B3C02D56442012000E028
:100C60000020DFF898A080460027FA44AAF1BE0AC7
:100C70000EE0E0070AD03246684607EB4701012341
:100C80000AEB810100F049FF8DE8070064107F1C2A
:100C9000002CEED1194F7F44AE3F19E0E80715D084
:100CA00007EB04100DF1180A90E80E008AE80E0018
:100CB000C068F04201D1981908903246012306A974
:100CC00003A800F02AFF03AB83E807006D10641C43
:100CD000002DE3D14FF0010332466946B8F1000F11
:100CE00003A802D000F004FF01E000F016FFC9E9FC
:100CF0000001C9F808200AB0BDE8F087808F000025
:100D0000007B00F08000704710B542485421FFF787
:100D100067FC41485421FFF763FC40485421FFF72A
:100D20005FFC3F493B483C4A3F4B08603D490A60F5
:100D30003A491960531C0365481C10650120086579
:100D40003B48344A39A1784400F022F920B93848A8
:100D500078440A3800F0C1F937482F4A35A1784461
:100D600000F016F920B9344878440A3800F0B5F993
:100D700032482A4A2FA1784400F00AF920B92F48B6
:100D800078440A3800F0A9F940232248DC00002109
:100D9000224600F0D9F820B125487844543800F0B4
:100DA0009CF91D4822464023002100F0CDF820B1D7
:100DB00021487844543800F090F91848224610230E
:100DC000002100F0C1F8002806D01C487844BDE896
:100DD0001040563800F081B910BD104870B5006D54
:100DE00020F001040B4800F049F90B4800F046F9E7
:100DF0000A4800F043F909E0206D20F00105204683
:100E000000F03CF9204600F078F82C46002CF3D195
:100E100070BD0000C80200201C03002070030020E9
:100E2000A4000020A8000020AC00002072000000F8
:100E30007A8E000077000000668E0000528E00005F
:100E40000EB5CDE9000100F01FFB029069460120BC
:100E5000ABBE0EBD08B5694600900220ABBE08BD12
:100E60001FB58DE8070069460520ABBE04B010BD74
:100E70001FB58DE80F0069460620ABBEF6E708B542
:100E8000694600900920ABBE08BD1CB5CDE9000144
:100E900069460A20ABBE1CBD704708B56946009084
:100EA0000C20ABBE08BD000000487047C403002002
:100EB0007546FFF7F9FFAE4605006946534620F038
:100EC0000700854618B020B5FFF7D8F9BDE82040E7
:100ED0004FF000064FF000074FF000084FF0000BF6
:100EE00021F00701AC46ACE8C009ACE8C009ACE8A9
:100EF000C009ACE8C0098D46704770B50446051FAF
:100F000000F034F90068002C14BF446870BD002C58
:100F100018BFAC423CBF20466468F8D301680A1889
:100F2000AA4218BF456003D12A68054611440160F2
:100F300028684119A1421CBF6C6070BD616869607E
:100F400021680844286070BD70B5C468A50713D037
:100F5000650211D4B2F5807F09D0B2F5007F06D0CA
:100F6000B2F5806F08D1012300F1240106E05D1E77
:100F70006FF07F46B54201D3012070BD0161C361AE
:100F8000416024F470611143C160002070BD000015
:100F90002DE9F0410C4607461646104600F06EF863
:100FA0002078611C61280AD0722802D077283CD1B1
:100FB00002E00125002405E00225042402E00824C3
:100FC00048F2020511F8010B2B2806D0622809D03F
:100FD00011F8010C74280AD00BE045F0030544F029
:100FE0000204EFE745F0040544F00104EAE744F0A9
:100FF000100438462146FFF723FF411C15D000217D
:10100000316171604FF40071F560F161706120072A
:1010100004D530460222002100F022F9306D40F064
:10102000010030653046BDE8F0810020FBE72DE986
:10103000F0410D460646104C206DC10704D0410812
:1010400004D020F00104F7E722460EE0542000F01F
:10105000D8F807000ED0206D47F001010843542155
:1010600020653846FFF7BCFA3A4629463046BDE8C7
:10107000F0418DE70020D6E7C80200202DE9F047B7
:1010800004464FF000094FF0FF37C568D4E90486E5
:10109000A80707D0204600F093F93046FFF7DAFEA4
:1010A000002802DA3846BDE8F087280502D5404618
:1010B000FFF723FF4C212046FFF792FA206D20F026
:1010C000010020654846EEE710B50446AFF3008006
:1010D0002046BDE81040FFF7BDB810B500F0BAF9E2
:1010E000BDE8104000F0B0B94FF0013C50F8042BBF
:1010F00051F8043B9A4221D1A2EB0C03934313EA2B
:10110000CC1317D150F8042B51F8043B9A4215D157
:10111000A2EB0C03934313EACC130BD150F8042B2E
:1011200051F8043B9A4209D1A2EB0C03934313EA12
:10113000CC13DBD04FF00000704700BFD01A01BACB
:10114000B1FA81F101F0180122FA01F0CB40C1F1AE
:101150002001DBB2C0B2C01A2CFA01F3D11A9143BC
:1011600011EAC311E6D1704770470000004870478C
:10117000CC030020704770477047704738B504466D
:101180000A4600206946AFF30080002808BF38BD3A
:1011900002460099204600F0A4F9012038BD012044
:1011A00000F0F3B9F8B5AFF30080054600200C4617
:1011B000102000BF0646A819A0420DD93246694644
:1011C0000020AFF30080070008BF00F0DEF90098B0
:1011D000A04218BF0546C419FFF7C8FF05600746BF
:1011E000F01D20F007004619284600F073F9B442BC
:1011F00008BFF8BDA21B31463868BDE8F84000F0D2
:1012000070B970B50646FFF7B1FF056806F10B002F
:1012100020F00704B4429CBF002070BD2B466A68D2
:10122000BAB11068A04210D304F1080188423CBF53
:101230005068586007D35168101941601168091B44
:10124000016058601460101D70BD13465268002A7A
:10125000E7D121462846FFF791FF0028DED170BD77
:101260002DE9F041044616460D464769007B80078C
:101270002ED03846FFF703FE50BB3EB3012E02D0FE
:10128000022E25D104E0204600F045F905441DE07A
:101290003846FFF702FEE168002841F01001E160E6
:1012A00005DA204600F058F80120BDE8F081C903B6
:1012B0000BD56268E16A914200D81146A2691144D7
:1012C0002269891A814200DD08460544002D01DAB1
:1012D0000220EAE7E16A6068E268814206D291038F
:1012E000E06203D522F4003141F01002A669002724
:1012F000AE4213DCE16A814201D90B4600E00346AD
:1013000003EB060C2369ACEB030CAC4506DD814214
:1013100001D98C4600E084469C4505D1A760276032
:1013200042F02000A5620DE0AD1BE669AE1B8142D4
:10133000A66000D90846C01A281A206058196060B3
:1013400022F0200003490840E060002084F8487043
:10135000ABE70000BFCFD7FFC16821F4001141F017
:101360008001C16000218160016070472DE9F04774
:10137000814614460E464FF0FF383248D56857690B
:10138000054209D03846A169FFF77FFD002811DB2F
:101390002C48C0430540E5602B4632464946384656
:1013A000FFF75EFDA16920F00042B21A1144002847
:1013B000A16103D02046FFF7CFFF4046BDE8F0878C
:1013C00070B504460569C06A6168884200D808465D
:1013D000E16821F42011E160C90312D5A84208D0C8
:1013E0002246411B2846FFF7C1FF10B14FF0FF30E6
:1013F00070BD0020E562C4E90150E06820F480304F
:10140000E060002070BD10B50446C06820F02000E8
:10141000E060A16AA06988420DD02046FFF7D0FFA6
:10142000E06820F4405040F01000E060A06AA06145
:101430002069E062606044F24001E0688843E06057
:1014400010BD000010000200002801D000F03CB8E0
:101450007047000010B5014602A000F07DF80120A1
:1014600010BD000053494752545245443A2052653A
:101470006469726563743A2063616E2774206F70CB
:10148000656E3A200000000010B5431C02E010F821
:10149000011B71B18107FAD14FF0013202C88C1AD9
:1014A0008C4314EAC211F9D0C01A0A0603D0C01E38
:1014B00010BDC01A10BD0A0401D0801E10BD090263
:1014C000FCD0401E10BD000001491820ABBEFEE755
:1014D0002600020000210160C0E9011070471020C1
:1014E0007047034640688C46002818BF88423CBFBE
:1014F00003464068F8D318681844884207D00CF1B6
:10150000030020F00700001D411A521A0146081D71
:101510000A60FFF7F2BC10B50146C268900703D01D
:10152000900607D5886A0AE0FFF7D6FA0121016024
:10153000881E10BD8B69486818440B69C01A91F861
:1015400048301BB191F84910401A10BD1103FCD569
:101550000028FADD401E10BD70B505460C460A2075
:1015600000E06D1C00F018F835B128780028F8D19B
:1015700002E0641C00F010F814B120780028F8D1C3
:10158000BDE870400A2000F007B810B500F00CF874
:10159000BDE81040FFF758BF08B569468DF8000058
:1015A0000320ABBE08BD000010B5012805D0002106
:1015B00003A0FFF7D1FF012010BD09A1F8E700004B
:1015C00053494752544D454D3A204F7574206F662C
:1015D0002068656170206D656D6F72790000000094
:1015E0003A2048656170206D656D6F727920636F78
:1015F00072727570746564005FEA400C08BF91F008
:10160000000F4FEA8C234FEAC12243EA51514FEABF
:101610001C5018BF00F5F0404FEA300018BF41F0F1
:1016200000415FEA6C5C00F02980BCF1FF3F08BF1D
:1016300040F080407047130C06BF12044FF0100CAE
:101640004FF0000C130E04BF12020CF1080C130F24
:1016500004BF12010CF1040C930F04BF92000CF1B3
:10166000020CD30F04BF52000CF1010C11464FF0D5
:101670000002A0F11F00A0EB0C00704711F0004F1A
:1016800008BF704731F000413FF4D5AF0B0C06BFE7
:1016900009044FF0100C4FF0000C0B0E04BF0902B0
:1016A0000CF1080C0B0F04BF09010CF1040C8B0F9B
:1016B00004BF89000CF1020CCB0F04BF49000CF1F0
:1016C000010CCCF12003A0EB0C0022FA03F302FA88
:1016D0000CF241EA030100F10100704720F07F4C59
:1016E00080EA030023F07F47ACEB070303F57C534C
:1016F00000F0004003F1FF032DE980494FEA154B4C
:1017000009B44FEA144325EA0B4E24EA03480FF2CA
:10171000042606EB132749083E785FEA320203FBF2
:101720000667C7F5000707FB06F64FEA54374FEA8E
:10173000D64606F1020607FB066CCCF1005C4FEAC8
:101740001C472CEA074C07FB06F40CFB06F504EBE0
:1017500015464FEA961634BF00204FF000404FEA7E
:10176000D13706FB07FC4FEA1C4C0CFB0BF7D21BD6
:1017700003FB0CF761EB07010CFB0EF7B0EB074026
:1017800072EB17420CFB08F734BFA2EB0742B2EB37
:10179000074261EB17414FEA0C444FEA910706FB01
:1017A00007FC4FEA1C4C0CFB0BF7B0EBC74072EB8D
:1017B000573203FB0CF734BFA2EBC742B2EBC74270
:1017C00061EB57310CFB0EF7B0EBC70072EB5772B1
:1017D0000CFB08F734BFA2EBC702B2EBC70261EB08
:1017E0005771039F4FEA816141EA921104EBCC04E7
:1017F0004FEAD1374FEA826206FB07FC42EA9012B9
:101800004FEA80604FEA1C4C0CFB0BF7D21B03FB2A
:101810000CF761EB07010CFB0EF7B0EB074072EB26
:1018200017420CFB08F734BFA2EB0742B2EB0742AA
:1018300061EB17414FEA8C554FEA910704EB9C246A
:1018400006FB07FC4FEA1C4C0CFB0BF7B0EBC74048
:1018500072EB573203FB0CF734BFA2EBC742B2EB7B
:10186000C74261EB57310CFB0EF7B0EBC70072EBD0
:1018700057720CFB08F734BFA2EBC702B2EBC702EA
:1018800061EB577115EB4C254FEA816141EA9211EA
:101890004FEA82624FEAD13742EA901206FB07FC18
:1018A00044F100044FEA80604FEA1C4C0CFB0BF73C
:1018B000D21B03FB0CF761EB07010CFB0EF7B0EB3F
:1018C000074072EB17420CFB08F734BFA2EB07424C
:1018D000B2EB074261EB174115EB1C154FEA813162
:1018E00041EA92414FEA823242EA90424FEA803026
:1018F0004FEA0C7644F1000448EA03434EEA0B48F1
:101900004FF0000EB2EB080C71EB030724BF6246E8
:1019100039464EEB0E0E4FF0000B00185241494174
:101920004BEB0B0BB2EB080C71EB03077BF1000BDD
:1019300024BF624639464EEB0E0E4FF0000B0018E6
:10194000524149414BEB0B0BB2EB080C71EB030717
:101950007BF1000B24BF624639464EEB0E0E51EA76
:10196000020718BF46F0010616EB0E7655F100028D
:1019700054F1000103D5BDE88901BDE80088BDE848
:101980008901BDE80048B619524141EB0101A3F1BC
:101990000103704780807F7E7D7C7B7A79787776C3
:1019A00076757473727171706F6E6E6D6C6C6B6A3C
:1019B0006A696868676666656464636362616160DA
:1019C000605F5F5E5E5D5D5C5C5B5B5A5A59595857
:1019D00058575756565555555454535352525251C1
:1019E000515050504F4F4F4E4E4D4D4D4C4C4C4B17
:1019F0004B4B4A4A4A49494948484847474747465E
:101A00004646454545444444444343434342424299
:101A100042414141002B9C4630D477002BD01CB56D
:101A20004FEA370703B44FF010004FF01001BAF13E
:101A3000000F06D0BCF1000FDCBF40F0080040F002
:101A400008014FF000000FBCBDE810400BF1010B86
:101A5000BBF1010F08BF5FEA170722BF12F10102B5
:101A600011F101014FF0004143F1000300F000408B
:101A700043EA00007047F9D35708D0E746EA064624
:101A800013F1400F4FEA16461FDD13F1200FDFBFA1
:101A900016430A46002120335B42BED0C3F1200723
:101AA00046EA064602FA07F74FEA164646EA0706EE
:101AB000C3F1200722FA03F201FA07F721FA03F132
:101AC0004FF0000342EA0702A7E746EA020646EAA9
:101AD00006464FEA164646EA0106BCBF46EA0646F7
:101AE000360C4FF000034FF000024FF0000194E776
:101AF0002DE9804C9A46934670B491E8380007C8A7
:101B000031EA400C48BF34EA430C03D5FFF7E6FD49
:101B1000FFF780FFF0BCBDE8008C2DE9804C9A46B1
:101B2000934670B491E8380007C810F0804F08BFA2
:101B300013F0804F03D100F005F8FFF76BFFF0BC06
:101B4000BDE8008C20F07F4780EA030023F07F4C43
:101B500007EB0C03A3F57C5300F00040A3F1FE0358
:101B600092F0000F00F0B38095F0000F00F0778046
:101B70002DE901494FEA11404FEA144621EA004895
:101B800000FB06FC24EA064708FB06F607FB08F8FC
:101B900000FB07F718EB06484CEB164C4FEA124BCC
:101BA00018EB07484FEA15464CEB174022EA0B4E5C
:101BB0000BFB06FC25EA06470EFB06F607FB0EFEAE
:101BC0000BFB07F71EEB064E4CEB164C4FF00006D6
:101BD0001EEB074E4CEB174B18EB0B0840F10000C7
:101BE00018EB0E0B58EB000840F100008F1A4FF075
:101BF00000013CBFC943661B14BFB5EB040C0021B8
:101C00003CBFC943F61B4FEA17444EEA8E0E27EA43
:101C100004454FEA1C4704FB07622CEA074C05FB0E
:101C200007F70CFB05F604FB0CFC16EB074642EB32
:101C3000174216EB0C4642EB1C421BEB060658EB18
:101C40000202414146EA9E0601D5BDE80189B61966
:101C5000524141EB0101A3F10103BDE801894FEAC3
:101C600014454FEA114724EA054621EA074C05FBD3
:101C700007F406FB07F70CFB06F105FB0CFC11EB68
:101C8000074144EB17444FEA124711EB0C4144EB78
:101C90001C4422EA074C05FB07F206FB07F70CFB86
:101CA00006F605FB0CFC16EB074642EB174216EB5B
:101CB0000C4642EB1C456A1854F1000148BF7047BE
:101CC000B619524141EB0101A3F10103704795F0B0
:101CD000000F37D04FEA11424FEA144721EA02467B
:101CE00024EA074C02FB07F106FB07F70CFB06F49E
:101CF00002FB0CFC14EB074441EB17414FEA15477C
:101D000014EB0C4441EB1C4125EA074C02FB07F5A0
:101D100006FB07F70CFB06F602FB0CFC16EB07466E
:101D200045EB174516EB0C4645EB1C42121951F1D9
:101D3000000148BF7047B619524141EB0101A3F1C0
:101D4000010370474FEA14454FEA114724EA05465C
:101D500021EA074C05FB07F106FB07F70CFB06F22F
:101D60004FF0000605FB0CFC12EB074241EB17415C
:101D700012EB0C4251EB1C4148BF7047921841EBEB
:101D80000101A3F1010370471F4890ED001A1F489D
:101D9000D0ED001A31EE611AB0EE410A1C4800681D
:101DA000401C01EE100AB8EEC11A20EE011AF0EE46
:101DB000081A81EE212A154890ED001A32EE011A18
:101DC000144880ED001A144890ED001A1348D0ED25
:101DD000001A31EE611AF0EE410A0D480068401C0D
:101DE00001EE100AB8EEC11A20EE811AF0EE081AC0
:101DF00081EE212A094890ED001A32EE011A0848B6
:101E000080ED001A704700003800002028000020F4
:101E100034000020240000203C000020300000207E
:101E20002C00002000BFFEE7704772B600BFFEE73F
:101E300070B50446A56D00F075F9064694F83500B6
:101E4000022808D08020606500BF002084F834009C
:101E500000BF012070BD2068006820F016002168D6
:101E600008602068406920F0800021684861206C8B
:101E700008B9A06C28B12068006820F0080021682B
:101E800008602068006820F001002168086010E008
:101E900000F048F9801B05280BD92020606503203D
:101EA00084F8350000BF002084F8340000BF032010
:101EB000D0E72068006800F001000028E8D194F81D
:101EC0005C103F208840A860012084F8350000BFE6
:101ED000002084F8340000BF00BFBBE7014691F842
:101EE0003500022803D08020486501207047052076
:101EF00081F835000868006820F001000A68106069
:101F00000020F3E770B5044600F00CF906462546BC
:101F1000681C10B104480078054400BF00F002F9C5
:101F2000801BA842FAD370BD18000020F8B5024605
:101F30000B460025002400200021C7E0012606FAF8
:101F400001F51E6806EA0504AC4274D11E7906F05C
:101F50000306012E04D01E7906F00306022E13D1CB
:101F600090684F000326BE40B0434F00DE68BE407D
:101F700030439060506801268E40B0431E79C6F30E
:101F800000168E40304350601E7906F00306032E83
:101F900009D0D0684F000326BE40B0434F009E6872
:101FA000BE403043D0601E7906F00306022E13D1E6
:101FB000CF0802F1200656F827004E07F70E0F262D
:101FC000BE40B0434F07FF0E1E69BE403043CF08EE
:101FD00002F1200646F8270010684F000326BE4095
:101FE000B0431E7906F003064F00BE403043106038
:101FF0005E6806F44036002E67D000BF00260096CB
:10200000344E366846F48046324F3E603E4636686F
:1020100006F48046009600BF00BF2F4E8F0856F88A
:1020200027008E07370F0F26BE40B0432B4EB2421B
:1020300002D1002615E048E0294EB24201D1012626
:102040000FE0284EB24201D102260AE0264EB242EB
:1020500001D1032605E0254EB24201D1042600E05D
:1020600007268F073F0FBE4030431B4E8F0846F8B0
:1020700027001F4E3068A0435E6806F4801606B144
:1020800020431B4E3060361D3068A0435E6806F466
:10209000001606B12043164E361D3060144E361F12
:1020A0003068A0435E6806F4003606B12043104E47
:1020B000361F3060361F3068A0435E6806F48036F5
:1020C00006B120430A4E083E3060491C1029FFF437
:1020D00035AFF8BD443802400838014000000240E6
:1020E0000004024000080240000C024000100240C0
:1020F000083C0140024613690B400BB1012000E08F
:102100000020704710B5426921EA020302EA010487
:1021100043EA0443836110BD0AB1816101E00B040D
:10212000836170470148006870470000100000207C
:1021300070B504460CB9012070BD94F83D0028B973
:10214000002084F83C00204600F0DAF8242084F8CF
:102150003D002068006820F00100216808602068C8
:10216000006840F40040216808602068006820F49E
:1021700000402168086000F0A9FA05465C496068E3
:10218000884206D85B48854201D2012007E0002042
:1021900005E05948854201D2012000E000200128D5
:1021A00000D1C9E75548B5FBF0F62068406820F03B
:1021B0003F003043216848604D496068884201D83B
:1021C000701C07E04FF4967070434FF47A71B0FBC7
:1021D000F1F0401C2168096A21F03F0108432168A1
:1021E000086243496068884214D8681E61684900E3
:1021F000B0FBF1F0401CC0F30B00042801D2042016
:102200003DE0681E61684900B0FBF1F0401CC0F37E
:102210000B0034E0A06838B9681E616801EB410129
:10222000B0FBF1F0401C0AE0681E616801EBC102DE
:1022300002EB0111B0FBF1F0401C40F48040C0F310
:102240000B0008B901201AE0A06848B9681E61684F
:1022500001EB4101B0FBF1F0401CC0F30B000CE0BE
:10226000681E616801EBC10202EB0111B0FBF1F0E5
:10227000401CC0F30B0040F4804040F40040216853
:10228000C9694CF6FF72914308432168C861D4E9DB
:10229000070108432168096821F0C001084321684B
:1022A0000860D4E9031008432168896848F2FF32C6
:1022B0009143084321688860D4E9050108432168F7
:1022C000C96821F0FF0108432168C86020680068E0
:1022D00040F001002168086000202064202084F87C
:1022E0003D000020206384F83E0000BF24E700008A
:1022F000A086010080841E0000093D0040420F00BE
:1023000010B586B00446142101A8FEF769F91B49EF
:10231000206888422FD100BF002000901848006834
:1023200040F00200164908600846006800F002000C
:10233000009000BF00BFC02001901220029000203A
:102340000390032004900420059001A90D48FFF795
:10235000EDFD00BF0020009009481030006840F4F7
:1023600000100749103108600846006800F40010AA
:10237000009000BF00BF06B010BD00000054004038
:1023800030380240000402400348006803490978DD
:102390000844014908607047100000201800002020
:1023A00010B50D48006840F400700B4908600846FD
:1023B000006840F4806008600846006840F480705F
:1023C0000860032000F0A6F80F2000F007F800F0E6
:1023D0002BF8002010BD0000003C024070B5044600
:1023E0000E4800784FF47A71B1FBF0F00C4909689F
:1023F000B1FBF0F5284600F02FFC08B1012070BDBC
:10240000102C07D200222146501E00F045F8054846
:10241000046001E00120F2E70020F0E7180000204E
:102420001C0000201400002008B500BF0020009010
:102430000E48006840F480400C4908600846006877
:1024400000F48040009000BF00BF00BF002000905B
:10245000081F006840F08050091F086008460068A7
:1024600000F08050009000BF00BF08BD443802401B
:102470000146084600280DDB00BF00BF00F01F0327
:1024800001229A4043099B0003F1E023C3F8002195
:1024900000BF00BF00BF70472DE9F05F80460D46CA
:1024A0001646002702F0A2FB074639462A46334665
:1024B00001F00700C0F1070ABAF1040F02D94FF08A
:1024C000040A01E0C0F1070AD14600F1040ABAF19A
:1024D000070F02D24FF0000A01E0A0F1030AD44630
:1024E0004FF0010A0AFA09FAAAF1010A0AEA020AF5
:1024F0000AFA0CFA4FF0010B0BFA0CFBABF1010BD3
:102500000BEA030B4AEA0B042146404602F076FB35
:10251000BDE8F09F00BF00F00702064B19684FF6B8
:10252000FF031940044B0B4343EA0221014B19609E
:1025300000BF70470CED00E00000FA0570B50446DE
:102540000D460CB9012070BD5848006800F0070026
:10255000A84209D255490D700846006800F00700EE
:10256000A84201D00120EEE7207800F00200022806
:102570001DD1207800F00400042805D14C480068E3
:1025800040F4E0504A490860207800F0080008282C
:1025900005D14748006840F4604045490860444818
:1025A000006820F0F000A1680843414908602078E5
:1025B00000F00100A8B36068012807D13C48083842
:1025C0000068C0F34040B8B90120BCE76068022849
:1025D00002D06068032807D1354808380068C0F386
:1025E000406048B90120AEE7314808380068C0F3C0
:1025F000400008B90120A6E72D48006820F003003C
:10260000616808432A490860FFF78CFD064609E027
:10261000FFF788FD801B41F28831884202D90320F0
:1026200091E707E02248006800F00C006168B0EB19
:10263000810FEDD11D48006800F00700A84209D9BC
:102640001A490D700846006800F00700A84201D042
:10265000012078E7207800F00400042807D114480E
:10266000006820F4E050E1680843114908602078D0
:1026700000F00800082808D10D48006820F46040E8
:10268000216940EAC1000A49086000F03FF80849A2
:102690000968C1F30311074A515CC8400649086044
:1026A00006480068FFF79AFE00204CE7003C024015
:1026B00008380240CA8D00081C00002014000020C9
:1026C00001480068704700001C00002000B5FFF7BB
:1026D000F7FF04490968C1F38221034A515CC840ED
:1026E00000BD000008380240DA8D000800B5FFF791
:1026F000E7FF04490968C1F34231034A515CC8400D
:1027000000BD000008380240DA8D00082DE9F047CE
:10271000002400250026A1462548006800F00C0092
:1027200020B1042805D008283AD105E0DFF88490CC
:1027300039E0DFF8849036E01D48001F006800F0A3
:102740003F041B48001F006800F4800078B11A485D
:102750001749091F0968C1F38811A0FB01700146E0
:10276000224600233846FDF79BFD05460EE0114842
:102770000F49091F0968C1F38811A0FB01700146C8
:10278000224600233846FDF78BFD05460848001F0A
:102790000068C0F30140401C4600B5FBF6F902E0BA
:1027A000DFF8109000BF00BF4846BDE8F08700008A
:1027B000083802400024F40040787D01F8B5044652
:1027C0000CB90120F8BD207800F00100002874D079
:1027D000F948006800F00C0004280DD0F6480068A5
:1027E00000F00C00082813D1F348001F006800F423
:1027F0008000B0F5800F0BD1EF4808380068C0F3B7
:102800004040002859D06068002856D10120D9E7FF
:1028100000BF6068B0F5803F08D1E748083800681D
:1028200040F48030E449083908601EE06068B0F583
:10283000A02F0DD1E0480838006840F48020DE4920
:10284000083908600846006840F4803008600CE0F1
:10285000D9480838006820F48030D7490839086022
:102860000846006820F48020086000BF606890B1CE
:10287000FFF758FC054606E0FFF754FC401B6428B0
:1028800001D903209EE7CC4808380068C0F34040D7
:102890000028F1D011E0FFF745FC054606E0FFF700
:1028A00041FC401B642801D903208BE7C24808384B
:1028B0000068C0F340400028F1D1207800F0020009
:1028C00002285FD1BC48006800F00C0058B1BA483B
:1028D000006800F00C0008281CD1B748001F0068F1
:1028E00000F48000B0B9B44808380068C0F3400074
:1028F00020B1E068012801D0012063E7AE48083824
:10290000006820F0F800216940EAC100AA490839AE
:10291000086037E0E06800B30120A8490860FFF7CD
:1029200001FC054606E0FFF7FDFB401B022801D92C
:10293000032047E7A04808380068C0F3400000289B
:10294000F1D09D480838006820F0F800216940EA7D
:10295000C10099490839086014E0002097490860CF
:10296000FFF7E0FB054606E0FFF7DCFB401B022813
:1029700001D9032026E7904808380068C0F34000DA
:102980000028F1D1207800F0080008282CD16069D7
:10299000A8B101208A490860FFF7C4FB054606E09C
:1029A000FFF7C0FB401B022801D903200AE7824839
:1029B0006C300068C0F340000028F1D014E0002023
:1029C0007F490860FFF7AEFB054606E0FFF7AAFB6C
:1029D000401B022801D90320F4E677486C300068D8
:1029E000C0F340000028F1D1207800F00400042852
:1029F00070D1002770483830006800F0805090B9DE
:102A000000BF002000906C483830006840F08050D3
:102A10006949383108600846006800F0805000902D
:102A200000BF00BF01276748006800F48070B0B99C
:102A30006448006840F4807062490860FFF772FBE8
:102A4000054606E0FFF76EFB401B022801D9032074
:102A5000B8E65C48006800F480700028F2D000BF3F
:102A6000A068012808D154486830006840F001008F
:102A70005149683108601DE0A06805280DD14E4815
:102A80006830006840F004004B496831086008462F
:102A9000006840F0010008600CE0474868300068BA
:102AA00020F001004449683108600846006820F0C1
:102AB0000400086000BFA068A8B1FFF733FB05461B
:102AC00009E0FFF72FFB401B41F28831884202D911
:102AD000032077E626E0384868300068C0F34000FD
:102AE0000028EED013E0FFF71DFB054608E0FFF7D6
:102AF00019FB401B41F28831884201D9032061E66D
:102B00002D4868300068C0F340000028EFD1012F45
:102B100007D129483830006820F0805026493831E4
:102B2000086000BFA069002845D02348006800F075
:102B30000C0008285DD0A069022845D100201F495B
:102B40000866FFF7EFFA054606E0FFF7EBFA401BD1
:102B5000022801D9032035E6174808380068C0F379
:102B600040600028F1D1D4E907010843616A40EAD6
:102B700081110122A06AC2EB500041EA00412C20E1
:102B8000005D41EA00600C49091F086001200B4903
:102B90000866FFF7C7FA054606E0FFF7C3FA401BD1
:102BA000022801D903200DE6034808380068C0F365
:102BB00040600028F1D049E0083802400000474258
:102BC000800E474200700040002021490866FFF750
:102BD000A9FA054606E0FFF7A5FA401B022801D92D
:102BE0000320EFE51B480068C0F340600028F2D1E5
:102BF0002CE0A069012800D1E4E51648001D066814
:102C0000A069012820D006F48001E06981421BD12F
:102C100006F03F01206A814216D147F6C07030406D
:102C2000616AB0EB811F0FD106F440310122A06A26
:102C3000C2EB5000B1EB004F06D106F070612C20C2
:102C4000005DB1EB006F01D00120BBE50020B9E5CC
:102C5000000047420038024070B504462546681E11
:102C6000B0F1807F01D301200FE0681E4FF0E0211A
:102C700048610F214FF0FF3001F0C0FF00204FF0FE
:102C8000E021886107200861002070BD704770470F
:102C900030B502460B4600BF92F83C00012801D136
:102CA000022030BD012082F83C0000BF022082F8E3
:102CB0003D00106844681068816824F0700418684A
:102CC000044310684460144D1068A84213D0106883
:102CD000B0F1804F0FD0114D1068A8420BD0104DAD
:102CE0001068A84207D00F4D1068A84203D00E4DBF
:102CF0001068A84205D121F080015868014310688E
:102D00008160012082F83D0000BF002082F83C0075
:102D100000BF00BFC5E70000000001400004004004
:102D200000080040000C00400040014010B504467F
:102D30000CB9012010BD94F83D0028B9002084F89A
:102D40003C00204600F026F8022084F83D00211DBA
:102D5000206801F051FB012084F8460000BF84F890
:102D60003E0001213F2001554020015541200155E1
:102D700000BF00BF012084F84200432001554420D9
:102D800001554520015500BF012084F83D00002079
:102D9000D0E7000038B5044628492068884218D199
:102DA00000BF002000902648006840F00100244940
:102DB00008600846006800F00100009000BF00BFF6
:102DC000002211461920FFF767FB1920FFF750FB7F
:102DD00032E02068B0F1804F1AD100BF002000908F
:102DE0001748001F006840F001001549091F0860DE
:102DF0000846006800F00100009000BF00BF0022FC
:102E000011461C20FFF748FB1C20FFF731FB13E0A5
:102E10000C49206888420FD100BF0020009008486C
:102E2000006840F48030064908600846006800F4F5
:102E30008030009000BF00BF38BD0000000001409E
:102E40004438024000400140014691F83D0001280D
:102E500001D001207047022081F83D00164B086820
:102E6000984213D00868B0F1804F0FD0134B086818
:102E700098420BD0124B0868984207D0114B086853
:102E8000984203D0104B086898420CD108688068BB
:102E900000F00702062A0CD00868006840F0010024
:102EA0000B68186005E00868006840F001000B68D6
:102EB00018600020CEE70000000001400004004040
:102EC00000080040000C004000400140014691F81D
:102ED0003D00012801D001207047022081F83D000B
:102EE0000868C06840F001000B68D860164B08689D
:102EF000984213D00868B0F1804F0FD0134B086888
:102F000098420BD0124B0868984207D0114B0868C2
:102F1000984203D0104B086898420CD1086880682A
:102F200000F00702062A0CD00868006840F0010093
:102F30000B68186005E00868006840F001000B6845
:102F400018600020C8E700000000014000040040B5
:102F500000080040000C0040004001402DE9F04115
:102F600004460D46002700BF94F83C00012802D11A
:102F70000220BDE8F081012084F83C0000BF02205F
:102F800084F83D002068866826F0770626F47F46A0
:102F9000206886602868502833D00CDC202850D068
:102FA00004DC00284BD0102851D149E0302849D00A
:102FB00040284CD139E060282DD0702807D0B0F5DA
:102FC000805F03D0B0F5005F41D10DE041E0D5E96D
:102FD00002136A68206801F076FA2068866846F075
:102FE00077062068866034E0D5E902136A682068B5
:102FF00001F069FA2068806840F4804021688860A8
:1030000027E0EA686968206801F02EFB50212068FB
:1030100001F064FA1DE0EA686968206801F037FB96
:103020006021206801F05AFA13E0EA6869682068B4
:1030300001F01AFB4021206801F050FA09E000BFBE
:1030400000BF00BF2968206801F048FA01E00127AD
:1030500000BF00BF012084F83D0000BF002084F8BD
:103060003C0000BF384684E7704770B504462068CE
:10307000C5682068066906F00200022819D105F02B
:103080000200022815D1401F216808610120207725
:103090002068806900F0030018B12046FFF7E4FFC4
:1030A00005E0204600F0C6F8204600F07AF900203E
:1030B000207706F00400042819D105F00400042844
:1030C00015D1C043216808610220207720688069FB
:1030D00000F4407018B12046FFF7C6FF05E0204617
:1030E00000F0A8F8204600F05CF90020207706F0F8
:1030F0000800082819D105F00800082815D1C04398
:1031000021680861042020772068C06900F003006E
:1031100018B12046FFF7A8FF05E0204600F08AF826
:10312000204600F03EF90020207706F0100010281D
:1031300019D105F01000102815D1C043216808618D
:10314000082020772068C06900F4407018B120463C
:10315000FFF78AFF05E0204600F06CF8204600F0FB
:1031600020F90020207706F0010048B105F00100A9
:1031700030B16FF0010021680861204600F088F945
:1031800006F08000802809D105F08000802805D154
:10319000C043216808612046FFF778FD06F0400033
:1031A000402809D105F04000402805D1C0432168DE
:1031B0000861204600F08EF906F02000202809D191
:1031C00005F02000202805D1C04321680861204671
:1031D000FFF75DFD70BD000010B586B004461421F8
:1031E00001A8FDF7FDF92068B0F1804F1CD100BFA8
:1031F000002000900D48006840F001000B49086075
:103200000846006800F00100009000BF00BF0320E6
:10321000019002200290002003900490012005906C
:1032200001A90348FEF782FE06B010BD3038024007
:103230000000024070472DE9F04104460D46164655
:10324000002700BF94F83C00012802D10220BDE80D
:10325000F081012084F83C0000BF36B1042E1BD061
:10326000082E31D00C2E5ED145E02946206801F0B1
:103270003FF92068806940F0080021688861206873
:10328000806920F0040021688861206880692969CC
:1032900008432168886148E02946206801F058F910
:1032A0002068806940F40060216888612068806936
:1032B00020F480602168886120688069296940EA7B
:1032C00001202168886130E02946206801F074F906
:1032D0002068C06940F008002168C8612068C069A2
:1032E00020F004002168C8612068C069296908438A
:1032F0002168C86119E02946206801F091F9206829
:10330000C06940F400602168C8612068C06920F489
:1033100080602168C8612068C069296940EA01208D
:103320002168C86101E0012700BF00BF00BF002085
:1033300084F83C0000BF384689E710B504460CB954
:10334000012010BD94F83D0028B9002084F83C000D
:10335000204600F025F8022084F83D00211D206859
:1033600001F04AF8012084F8460000BF84F83E00CE
:1033700001213F200155402001554120015500BF4A
:1033800000BF012084F8420043200155442001552C
:103390004520015500BF012084F83D000020D0E702
:1033A0007047704770B504460D4615B994F83E0055
:1033B0000BE0042D02D13F20005D06E0082D02D174
:1033C0004020005D01E04120005D012801D0012086
:1033D00070BD1DB9022084F83E000EE0042D03D11B
:1033E00002213F20015508E0082D03D10221402091
:1033F000015502E0022141200155012229462068A1
:1034000001F050F81D492068884201D1012000E0F8
:10341000002028B12068406C40F4004021684864D6
:1034200016492068884213D02068B0F1804F0FD031
:103430001349206888420BD012492068884207D07F
:1034400011492068884203D01049206888420CD175
:103450002068806800F00706062E0CD020680068FF
:1034600040F001002168086005E02068006840F035
:103470000100216808600020AAE700000000014068
:103480000004004000080040000C004000400140E3
:1034900010B504460B492068884212D10A480078CA
:1034A00008B1012000E000200849097809B1012194
:1034B00000E00021084008B102F0EAF80448FFF7F4
:1034C00005FD10BD000001406400002065000020E3
:1034D0000401002070477047704700002DE9F84F45
:1034E0000446206805682068C668206847694FF070
:1034F0000009CA4605F00F09B9F1000F0AD105F01D
:10350000200038B106F0200020B1204601F022F959
:10351000BDE8F88FB9F1000F7CD007F0010018B9B1
:1035200006F49070002875D005F0010030B106F463
:10353000807018B1606C40F00100606405F0040018
:1035400030B107F0010018B1606C40F00200606417
:1035500005F0020030B107F0010018B1606C40F0D6
:103560000400606405F0080048B106F0200010B9BE
:1035700007F0010018B1606C40F008006064606CF6
:10358000002846D005F0200028B106F0200010B138
:10359000204601F0DFF820684069C0F3801A606CB3
:1035A00000F0080010B9BAF1000F2DD0204601F04C
:1035B0008BF82068406900F04000402820D100BF0F
:1035C00000BF2168143151E8001F21F0400021683C
:1035D000143141E80002002AF3D100BFE06B50B182
:1035E0007F48E16B0865E06BFEF778FC88B1E06B23
:1035F000016D88470DE02046FFF76EFF09E009E006
:103600002046FFF769FF04E02046FFF765FF002032
:1036100060647DE7206B012878D105F01000002858
:1036200074D006F010000028FAD000BF00200090EF
:1036300020680068009020684068009000BF00BFCC
:103640002068406900F04000402870D1E06B0068BD
:1036500040681FFA80F8B8F1000F58D0A08D40459F
:1036600055DDA4F82E80E06BC069B0F5807F43D0B3
:1036700000BF00BF21680C3151E8001F21F48070A9
:1036800021680C3141E80002002AF3D100BF00BFDD
:1036900000BF2168143151E8001F21F001002168AA
:1036A000143141E80002002AF3D100BF00BF00BF7F
:1036B0002168143151E8001F21F0400021681431C5
:1036C00041E80002002AF3D100BF202084F8420024
:1036D0000020206300BF00BF21680C3151E8001FAB
:1036E00021F0100021680C3141E80002002AF3D1DA
:1036F00000BFE06BFEF79CFB02206063A08DE28DB3
:10370000801A81B22046FFF7E6FE0EE052E0A08D5F
:1037100040450AD1E06BC069B0F5807F05D1022039
:103720006063A18D2046FFF7D6FEF1E6FFE7A08D8E
:10373000E18D401A1FFA80F8E08DD0B3B8F1000F88
:1037400037D000BF00BF21680C3151E8001F21F4C1
:10375000907021680C3141E80002002AF3D100BFCB
:1037600000BF00BF2168143151E8001F21F00100A3
:103770002168143141E80002002AF3D100BF202063
:1037800084F842000020206300BF00BF21680C3194
:1037900051E8001F21F0100021680C3141E80002BF
:1037A000002AF3D100BF0220606341462046FFF7A4
:1037B00092FEADE605F0800030B106F0800018B151
:1037C000204601F07BF9A3E605F0400030B106F099
:1037D000400018B1204600F0ADFF99E600BF97E623
:1037E000B746000810B504460CB9012010BDA06909
:1037F00000B100E000BF94F8410028B9002084F82F
:103800004000204600F02AF8242084F84100206877
:10381000C06820F400502168C860204601F018F804
:103820002068006920F490402168086120684069A0
:1038300020F02A00216848612068C06840F40050E8
:103840002168C86000206064202084F8410084F86A
:1038500042000020606300BFC8E7000010B586B0DA
:103860000446142101A8FCF7BBFE1F4920688842CA
:1038700038D100BF002000901C48006840F01000C4
:103880001A4908600846006800F01000009000BF68
:1038900000BF00BF0020009014481438006840F0BA
:1038A00001001249143908600846006800F0010060
:1038B000009000BF00BF4FF4C06001900220029052
:1038C00000200390032004900720059001A90848D8
:1038D000FEF72CFB002211462520FEF7DDFD2520FA
:1038E000FEF7C6FD06B010BD00100140443802408E
:1038F0000000024070B504460D46164694F842009A
:1039000020280BD105B10EB9012070BD0020206325
:1039100032462946204601F0B1F8F6E70220F4E7E6
:1039200070B5054607492868884204D106480478DE
:10393000204600F0EBFB012203490448FFF7DAFFC1
:1039400070BD00000010014000000020DC010020DC
:103950002DE9F84F04460E46174699464FF0000AE7
:1039600094F84100202850D106B117B90120BDE8D4
:10397000F88F00206064212084F84100FEF7D2FB1C
:103980008246A784E784A068B0F5805F04D12069EF
:1039900010B90025B04602E035464FF000081EE0A1
:1039A0005346002280212046CDF8009001F0B6F861
:1039B00020B1202084F841000320D8E745B9B8F8A9
:1039C0000000C0F308002168486008F1020803E025
:1039D0002878216848606D1CE08C401EE084E08CF3
:1039E0000028DDD15346002240212046CDF800902A
:1039F00001F094F820B1202084F841000320B6E7BC
:103A0000202084F841000020B1E70220AFE7704792
:103A100000BFFEE7FF2000BF011EA0F10100FBD1A7
:103A20007047000010B5002204210948FEF774FB1E
:103A3000012202210648FEF76FFBFFF7EBFF012290
:103A400004210348FEF768FBFFF7E4FF10BD000008
:103A50000004024070B506460024012204211248E9
:103A6000FEF75AFB002517E06006040E0122022132
:103A70000D48FEF751FBFFF7CDFF04210A48FEF782
:103A800039FB08B1601CC4B2002202210648FEF7CF
:103A900043FBFFF7BFFF6D1C082DE5DB304600F050
:103AA0006BF8204670BD00000004024070B504466B
:103AB00000251EE004F0800028B1012204211048F6
:103AC000FEF72AFB04E0002204210D48FEF724FB48
:103AD000FFF7A0FF012202210948FEF71DFBFFF7B7
:103AE00099FF002202210648FEF716FB6006040E2D
:103AF0006D1C082DDEDB00F021F80646304670BD57
:103B00000004024010B5012204210B48FEF704FB1B
:103B1000012202210848FEF7FFFAFFF77BFF00228F
:103B200004210548FEF7F8FAFFF774FF002202218E
:103B30000148FEF7F1FA10BD0004024010B5012261
:103B400004210C48FEF7E8FAFFF764FF0122022186
:103B50000848FEF7E1FAFFF75DFF04210548FEF78C
:103B6000C9FA0446002202210248FEF7D5FA20468F
:103B700010BD00000004024010B50446012C05D120
:103B8000012204210B48FEF7C7FA04E000220421B9
:103B90000848FEF7C1FAFFF73DFF01220221054860
:103BA000FEF7BAFAFFF736FF002202210148FEF7BE
:103BB000B3FA10BD0004024010B54FF400510248A2
:103BC000FEF7A0FA10BD00000008024090ED000AC8
:103BD000F2EE040AB4EEE00AF1EE10FA04DDB2EE01
:103BE000040A80ED000A0CE090ED000AFAEE040AE7
:103BF000B4EEE00AF1EE10FA03D2BAEE040A80ED58
:103C0000000A91ED000AF2EE040AB4EEE00AF1EEC9
:103C100010FA04DDB2EE040A81ED000A0CE091ED29
:103C2000000AFAEE040AB4EEE00AF1EE10FA03D24A
:103C3000BAEE040A81ED000A704710B580216B20AE
:103C400000F0C0F86420FEF75DF900216B2000F061
:103C5000B9F8032000F074F8002000F069F8322071
:103C600000F093F80121382000F0ACF800216A2020
:103C700000F0A8F80021232000F0A4F880213720CC
:103C800000F0A0F8752000F00DF801216B2000F085
:103C900099F800216C2000F095F8C82000F075F824
:103CA000002010BD70B50446FFF72CFFD020FFF7B1
:103CB000FDFE2046FFF7FAFEFFF724FFD120FFF7B5
:103CC000F5FE0120FFF7C6FE0546FFF7ABFE2846CE
:103CD00070BD2DE9F04106460F4614461D46FFF71C
:103CE00011FF002141EA4601C8B2FFF7DFFE384666
:103CF000FFF7DCFEFFF706FF012101EB4601C8B22A
:103D0000FFF7D4FE0DE0012C04D10120FFF7A2FE45
:103D1000287003E00020FFF79DFE2870601EC4B2EB
:103D20006D1C002CEFD1FFF77DFE0020BDE8F08177
:103D300010B50446E006010E1C2000F043F810BD4B
:103D400010B50446E006010E1B2000F03BF810BD44
:103D500070B504460025BC2C01DB012510E0622C67
:103D600001DB02250CE02A2C01DB032508E0142CE2
:103D700001DB042504E00A2C01DB052500E0062513
:103D800029461A2000F01EF870BD70B50446B4F53F
:103D90007A7F01DD4FF47A74042C00DA04244FF4A6
:103DA0007A7090FBF4F0401EC5B22946192000F04D
:103DB00009F80546264604EBD671C1F34F00FFF71C
:103DC000C7FF70BD70B505460C46FFF79BFED020BF
:103DD000FFF76CFE2846FFF769FE2046FFF766FEF8
:103DE000FFF720FE002070BD2DE9F04105460E468C
:103DF00017469846FFF786FE002141EA4501C8B202
:103E0000FFF754FE3046FFF751FE002405E018F896
:103E10000400FFF74BFE601CC4B2BC42F7DBFFF7A7
:103E200001FE0020BDE8F08100B587B0142102A892
:103E3000FCF7D6FB00BF002001903548006840F039
:103E40000400334908600846006800F0040001904F
:103E500000BF00BF00BF002001900846006840F08E
:103E6000800008600846006800F08000019000BFF4
:103E700000BF00BF002001900846006840F001002C
:103E800008600846006800F00100019000BF00BF14
:103E900000BF002001900846006840F00200086062
:103EA0000846006800F00200019000BF00BF002239
:103EB0004FF400511748FEF72FF90022062116484B
:103EC000FEF72AF94FF4005002900120039004906D
:103ED0000020059002A90F48FEF728F878200290EC
:103EE0004FF4041003900120049002A90B48FEF740
:103EF0001DF806200290112003900120049000205C
:103F0000059002A90448FEF711F807B000BD0000B3
:103F10003038024000080240000402400000024025
:103F200010B50B480B4908600B4848600021094850
:103F30008160C1604FF48041016100214161816174
:103F4000C1610162FEF7F4F808B1FDF76EFF10BD24
:103F500000540040B0000020A086010000B587B0EA
:103F6000002003900490059006900190029015485F
:103F7000154908605320486000211348816042F2CF
:103F80000F71C1600021016141618161FEF7CEFEC8
:103F900008B1FDF74AFF4FF48050039003A90A4887
:103FA000FEF7DCFF08B1FDF740FF00200190029012
:103FB00001A90548FEF76CFE08B1FDF736FF07B012
:103FC00000BD0000000001400401002000B58DB0DC
:103FD000002009900A900B900C90079008901C21EB
:103FE0006846FCF7FDFA4FF08040234908605320F3
:103FF000486000212048816044F61F61C1600021B3
:1040000001618161FEF792FE08B1FDF70EFF4FF4EA
:104010008050099009A91848FEF7A0FF08B1FDF7E4
:1040200004FF1548FFF789F908B1FDF7FEFE0020EF
:104030000790089007A91048FEF72AFE08B1FDF77F
:10404000F4FE602000900020019002900490002275
:1040500069460948FFF7EFF808B1FDF7E6FE0422CC
:1040600069460548FFF7E7F808B1FDF7DEFE0248AC
:10407000FFF7B2F80DB000BD4C0100201FB50020C5
:1040800000900190029003900E480F4908600020B4
:10409000486000210C4881604FF6FF71C16000212B
:1040A00001618161FEF742FE08B1FDF7BEFE4FF4EB
:1040B0008050009069460448FEF750FF08B1FDF7B4
:1040C000B4FE1FBD004001409401002010B50B4814
:1040D0000B4908604FF4E1304860002108488160D6
:1040E000C16001610C21416100218161C161FFF763
:1040F00079FB08B1FDF799FE10BD000000100140EA
:10410000DC01002000BFFEE700BFFEE770B50546FA
:104110004D48007870B92C2D0CD101204A49087007
:104120004A4801780078401C484A1070484820F8F6
:10413000115088E044480078012812D1122D10D186
:1041400001024448FDF7DEFF02203F4908703F4866
:1041500001780078401C3D4A10703D4820F811500D
:1041600071E03948007802283AD13848017800785F
:10417000401C364A1070364820F81150104600781E
:104180000A2801DA5B2D5ED103202F490870012037
:10419000314908702D480078401F2D4911F8100052
:1041A0002E49087029480078001F294911F810008D
:1041B0002B49087025480078C01E254911F81000C9
:1041C0002849087021480078801E214911F8100004
:1041D0002549087025480068401C2449086032E0E1
:1041E0001948007803281FD118480078401E184944
:1041F00031F810005B2807D10020174908701349D7
:104200000870114908701EE000200F4908700F491E
:104210000870002405E000200D4921F81400601CFE
:10422000C4B20A2CF7DB0EE00020074908700749EA
:104230000870002405E00020054921F81400601CE6
:10424000C4B20A2CF7DB70BD6900002068000020B2
:10425000A4020020000002406A0000206400002048
:10426000650000206600002067000020600000203C
:104270007047704700EE100AB8EE400AF1EE020AED
:1042800070EE200A9FED1B1A80EE810AF6EE000AFE
:1042900030EE200ADFED180A20EE200ABCEEC00A3C
:1042A00010EE102A154B1A8000EE101AB8EE400AD4
:1042B000DFED130A70EE600A9FED0E1A80EE810AA0
:1042C000F6EE000A30EE200ADFED0B0A20EE200A9F
:1042D000BCEEC00A10EE102A0A4B1A80074A128858
:1042E000094B1B685A63074A1288074B1B689A637D
:1042F000704700000000B44200007A445C000020D7
:10430000CDCC2C415E0000204C01002010B5FEF702
:104310003BF810BD00B593B0302107A8FCF760F959
:10432000142102A8FCF75CF900BF0020019023488B
:10433000006840F08050214908600846006800F09D
:104340008050019000BF00BF00BF002001901C48BA
:10435000006840F440401A4908600846006800F4CC
:104360004040019000BF00BF01200790000408906A
:1043700002200D9041050E9119210F91A821109155
:10438000022111910421129107A8FEF717FA08B132
:10439000FDF74BFD0F2002900220039000200490B7
:1043A0004FF48050059000200690022102A8FEF7ED
:1043B000C5F808B1FDF739FD13B000BD4038024023
:1043C000007000400348006840F470000149086034
:1043D0007047000088ED00E010B50248FEF745FE8A
:1043E00010BD00000401002010B50248FEF73DFE9C
:1043F00010BD00004C01002010B50268224B98420D
:104400000BD0B0F1804F08D0204B984205D0204B04
:10441000984202D01F4B984203D122F070024B68A1
:104420001A43194B984214D0B0F1804F11D0174B5A
:1044300098420ED0164B98420BD0164B984208D09B
:10444000154B984205D0154B984202D0144B984218
:1044500003D122F44072CB681A4322F080034C69E6
:1044600043EA04028B68C3620B688362064B98427E
:1044700001D10B690363036843F004030360012364
:104480004361026010BD00000000014000040040D4
:1044900000080040000C0040004001400044014082
:1044A0000048014030B501F01F05012404FA05F36E
:1044B000046A9C430462046A01F01F0502FA05F5D0
:1044C0002C43046230BD30B50C46816821F47F4135
:1044D00042EA032525432943816030BD0A468168AD
:1044E00021F0700142F0070319438160704700001A
:1044F00030B5026A056A25F00105056243688469E2
:1045000024F0700424F003040D682C4322F002020E
:104510008D682A430D4DA84206D100BF22F0080243
:10452000CD682A4322F00402084DA84207D123F4A3
:10453000807323F400734D692B438D692B434360D3
:1045400084614D684563026230BD00000000014097
:1045500030B5026A056A25F0100505624368846972
:1045600024F4E04424F440740D6844EA052422F065
:1045700020028D6842EA05120E4DA84207D100BF05
:1045800022F08002CD6842EA051222F04002094D75
:10459000A84209D123F4806323F400634D6943EA00
:1045A00085038D6943EA8503436084614D688563B3
:1045B000026230BD0000014030B5026A056A25F490
:1045C000807505624368C46924F0700424F0030414
:1045D0000D682C4322F400728D6842EA05220F4DCB
:1045E000A84207D100BF22F40062CD6842EA05224A
:1045F00022F48062094DA84209D123F4805323F4A8
:1046000000534D6943EA05138D6943EA051343607E
:10461000C4614D68C563026230BD00000000014006
:1046200030B5036A056A25F4805505624468C2699D
:1046300022F4E04222F440720D6842EA052223F49B
:1046400000538D6843EA0533064DA84204D124F493
:1046500080444D6944EA85144460C2614D68056434
:10466000036230BD0000014030B50B461446026ABB
:10467000056A25F001050562816921F0F00141EA32
:10468000041122F00A021A438161026230BD30B582
:104690000B461446026A056A25F010050562816919
:1046A00021F4704141EA043122F0A00242EA0312EF
:1046B0008161026230BD70B50446A56B0020E885BB
:1046C0002846FEF709FF70BD00BF00BF02680C322C
:1046D00052E8002F22F4907102680C3242E8001375
:1046E000002BF3D100BF00BF00BF0268143252E8B4
:1046F000002F22F001010268143242E80013002B5F
:10470000F3D100BF016B01290ED100BF00BF0268C9
:104710000C3252E8002F22F0100102680C3242E8FD
:104720000013002BF3D100BF202180F8421000219C
:104730000163704710B504462068C06820F040004F
:104740002168C860202084F841002046FFF75FF907
:10475000002010BDF8B504460025002694F842005C
:10476000222873D1A068B0F5805F0BD1206948B9C9
:10477000A66A20684068C0F308003080A06A801CE8
:10478000A06214E0A56AA068B0F5805F03D0A068BD
:1047900028B9206918B920684068287004E02068AA
:1047A000406800F07F002870A06A401CA062E08D85
:1047B000401E80B2E085002846D12068C06820F005
:1047C00020002168C8602068C06820F480702168DB
:1047D000C8602068406920F00100216848612020FD
:1047E00084F8420000206063206B012826D100205D
:1047F000206300BF00BF21680C3151E8001F21F089
:10480000100021680C3141E80002002AF3D100BFFA
:104810002068006800F0100010280AD100BF0020B6
:10482000009020680068009020684068009000BFF9
:1048300000BFA18D2046FEF74EFE02E02046FFF7A6
:104840006FF80020F8BD01E00020FBE70220F9E747
:104850002DE9F84F04462068006920F44050E168D3
:104860000843216808612169A06808436169084319
:10487000E169084300902068C06849F20C618843F0
:10488000009908432168C8602068406920F440709E
:10489000A16908432168486176492068884203D0AD
:1048A00075492068884203D1FDF720FF814602E068
:1048B000FDF70CFF8146E069B0F5004F6CD1022096
:1048C0006168A0FB015003461920A9FB0070014656
:1048D0002A463846FBF7E4FC6421B0FBF1F04FEACE
:1048E000001A02206168A0FB01510B461920A9FBA8
:1048F00000712A463846FBF7D3FC834602206168E4
:10490000A0FB015003461920A9FB00712A46384636
:10491000FBF7C6FC6421B0FBF1F000EBC00101EB3A
:104920000010ABEB8000322101EBC0006421B0FB32
:10493000F1F000F0F8000AEB400A02206168A0FBE9
:10494000015003461920A9FB007001462A4638464B
:10495000FBF7A6FC834602206168A0FB01500346DA
:104960001920A9FB00712A463846FBF799FC6421FF
:10497000B0FBF1F000EBC00101EB0010ABEB8000ED
:10498000322101EBC0006421B0FBF1F000F0070020
:104990005044216888606AE004206168A0FB0150EF
:1049A00003461920A9FB007001462A463846FBF74A
:1049B00077FC824604206168A0FB01500346192061
:1049C000A9FB007001462A463846FBF769FC6421C2
:1049D000B0FBF1F000EBC00101EB0010AAEB80008E
:1049E000322101EB00106421B0FBF1F000F0F00A7D
:1049F00004206168A0FB017003461920A9FB005147
:104A00003A462846FBF74CFC6421B0FBF1F00AEB78
:104A1000001A04206168A0FB01510B461920A9FB74
:104A200000712A463846FBF73BFC83460420616848
:104A3000A0FB015003461920A9FB007001462A463D
:104A40003846FBF72DFC6421B0FBF1F000EBC00110
:104A500001EB0010ABEB8000322101EB0010642170
:104A6000B0FBF1F000F00F00504421688860BDE811
:104A7000F88F0000001001400014014010B50346FB
:104A800099629A85DA8500205864222083F84200D2
:104A9000186928B11868C06840F480701C68E0602C
:104AA0001868406940F001001C6860611868C068BF
:104AB00040F020001C68E060002010BD014691F825
:104AC0004100212828D18868B0F5805F0BD10869A2
:104AD00048B90A6A1088C0F308000B685860086A71
:104AE000801C086205E00B6A581C086218780B6885
:104AF0005860C88C401E80B2C88458B90868C06825
:104B000020F080000B68D8600868C06840F0400062
:104B10000B68D860002070470220FCE72DE9F843BD
:104B200004460D4617469846089E31E0701C70B347
:104B3000FDF7F8FAA0EB0800B04200D816B9032040
:104B4000BDE8F8832068C06800F00400F8B1802D4B
:104B50001ED0402D1CD020680068C0F3C000B0B14A
:104B600000BF002000902068006800902068406826
:104B7000009000BF00BF2046FFF7A6FD082060643C
:104B800000BF002084F8400000BF0120D8E7FFE705
:104B9000206800682840A84201D1012000E00020E0
:104BA000B842C3D00020CBE710B50248FEF796FC10
:104BB00010BD0000DC01002000BFFEE703B4019837
:104BC0004100009850EAC12018BF04204A0D18BFC8
:104BD00040F0010040F2FF72B2EB515F08BF40F0BD
:104BE0000200012808BF052002B070470248006893
:104BF000C0F30220704700000CED00E010B5002863
:104C000004DB0A07130E054A135406E00A07140EC4
:104C1000034A00F00F031B1FD45410BD00E400E052
:104C200018ED00E00000000070B5C1482DED020B4A
:104C30002DED0E8B82B0119D25F000449FEDBEDB63
:104C40009FEDBFEB84423EDBA4F140511098A1F1EF
:104C50007F6108430FD0BC48844202DC28D1109801
:104C600030B39DED100B02B0BDEC0E8B02B0BDE871
:104C7000704000F069BC9DED100B53EC1D2B51EC06
:104C8000100B03F065FD9DED100B41EC180B53EC80
:104C90001E2B51EC100B03F05BFD53EC182B03F0B3
:104CA00057FB41EC100B02B0BDEC0E8B02B070BD97
:104CB0000120FBF7C4FC02B0BDEC0E8B02B0BDE8D6
:104CC000704000F055BCA1489FEDA18B844256DA9C
:104CD0009DED100BB4F1795F0ADA51EC100BFFF780
:104CE0006DFF042808BF00F053FC9DED100BDAE7C0
:104CF00053EC102B51EC100B03F02AFD41EC190B77
:104D000095480621B0EE490AF0EE690A784400F0B1
:104D10009FFB53EC192B51EC100B03F019FD41ECE8
:104D20001A0B8E48B0EE490AF0EE690A0421784465
:104D300000F08EFB53EC192B51EC100B03F008FD27
:104D400053EC182B03F004FB41EC100B51EC1A0B45
:104D500053EC102B03F0A4FBCDE900019DED000BFB
:104D600053EC102B9DED100B51EC100B03F0F0FCED
:104D70009DED101B53EC112B03F0EAFAD2E09DEDF0
:104D8000100B51EC100B01F08FFB53EC182B03F0C0
:104D9000DDFD9FED730BCDE9000153EC102B9DED74
:104DA000000B51EC100B03F0D3FC41EC190B6E48D7
:104DB0000621B0EE490AF0EE690A784400F048FB9B
:104DC00053EC192B51EC100B03F0C2FC41EC1B0B04
:104DD0006648B0EE490AF0EE690A0421784400F012
:104DE00037FB53EC192B51EC100B03F0B1FC53ECD7
:104DF000182B03F0ADFA41EC1C0B51EC190B03F02E
:104E00001BFA41EC180B5A489FED5BABA04222DC29
:104E100053EC1C2B51EC1B0B03F042FBCDE90001C2
:104E20009DED000B51EC180B53EC102B03F090FC94
:104E300053EC182B03F08CFA53EC1A2B03F088FC7C
:104E400053EC1D2B03F05AFE53EC1E2B03F07EFD9A
:104E500041EC100B5FE08DED008B002000909DED8C
:104E6000000B51EC180B53EC102B03F071FA9DED75
:104E7000000B41EC1E0B53EC102B51EC100B03F00C
:104E800067FC53EC192B03F061FD53EC1E2B03F070
:104E900007FB41EC190B53EC1C2B51EC1B0B03F0E3
:104EA000FFFA41EC1B0B53EC1A2B51EC190B03F0DE
:104EB0004FFC53EC1D2B03F049FD41EC190B53EC57
:104EC0001A2B51EC180B03F043FC53EC1B2B03F093
:104ED0003FFC53EC192B03F011FE9DED000B41EC50
:104EE000180B53EC1A2B51EC100B03F031FC9FED17
:104EF000249B53EC192B03F029FD41EC100B51ECD2
:104F0000180B53EC102B03F0F9FD53EC192B03F0A5
:104F10001DFD41EC100B002D3FF7C5AE51EC100B01
:104F200003F0D8F941EC100BBDE6000000000000D2
:104F30000000F03F00000000075C143326A6913CFF
:104F4000182D4454FB21F93F0000F07F0000E03FA2
:104F5000000000000000F03F304D00003E4D00001A
:104F6000000000000000E03F824C0000904C000078
:104F70003333EF3F0000000000000000000000405D
:104F8000182D4454FB21E93F70B59B482DED020BD1
:104F90002DED068B079D25F00044A04218DC9748B4
:104FA000844202DC0AD1069840B19DED060BBDECAF
:104FB000068B02B0BDE8704000F0C6BA002DCCBF31
:104FC0009FED8F0B9FED900BBDEC068B02B070BD7B
:104FD0008F48A04215DD8F48A042D8BF4FF0FF3464
:104FE00058DD9DED060B51EC100BFFF7E7FD042893
:104FF00008BF00F0CDFA9DED060BBDEC068B02B0AC
:1050000070BD9DED060B51EC100B01F04DFACDE992
:10501000060181489FED828BA0423CDD8248A04280
:105020001FDD00249FED82AB9DED060B53EC1A2B88
:1050300051EC100B03F08CF99DED060B41EC190BB4
:1050400053EC1A2B51EC100B03F082FB53EC182B92
:1050500003F054FD53EC192B03F022FACDE90601BD
:1050600049E09DED060B012453EC182B51EC100B7D
:1050700003F06EF99DED060B41EC190B53EC182B68
:1050800051EC100B03F03AFD53EC192B03F008FA26
:10509000CDE906012FE06848A0421FDD02249FED04
:1050A000689B9DED060B53EC192B51EC100B03F094
:1050B0004FFB53EC182B03F04BF99DED060B41EC25
:1050C000180B53EC192B51EC100B03F017FD53EC9C
:1050D000182B03F0E5F9CDE906010CE09DED060B78
:1050E000032453EC102B9FED580B51EC100B03F0E5
:1050F000D7F9CDE906019DED060B53EC102B51ECD1
:10510000100B03F025FB41EC180B53EC182B03F0AC
:105110001FFB41EC190B4E480621B0EE490AF0EE98
:10512000690A784400F094F953EC182B51EC100BF9
:1051300003F00EFB41EC180B4648B0EE490AF0EEC6
:10514000690A0521784400F083F953EC192B51ECDE
:10515000100B03F0FDFA41EC100B51EC180B53EC63
:10516000102B002C0EDA03F0F3F89DED061B53EC28
:10517000112B03F0EDFA9DED061B53EC112B03F000
:10518000E5FB35E003F0E4F89DED061B53EC112B35
:1051900003F0DEFA41EC100B2F48784400EBC4001A
:1051A00090ED001B51EC100B53EC112B03F0A6FCFF
:1051B0009DED061B53EC112B03F0A0FC41EC100BF2
:1051C0002648784400EBC40090ED001B51EC100B16
:1051D00053EC112B03F0BAFB41EC100B002DA2BFD6
:1051E000BDEC068B02B070BD51EC100B03F072F8F1
:1051F00041EC100B01E70000000010440000F07FBC
:10520000182D4454FB21F93F182D4454FB21F9BFBC
:105210000000DC3F0000203E0000F33F00000000E3
:10522000000000000000F03F0000E63F000000002A
:10523000000000000000004000800340000000006B
:10524000000000000000F83F000000000000F0BF78
:10525000D24900008849000012490000CA480000F5
:1052600070B56B4E2DED040B2DED028B82B0DDF889
:105270001CC0DDE905235C422CF000411C4341EADF
:10528000D474049D22F00040B44205D86C422C43F3
:1052900040EAD474B4420BD99DED061B9DED040B7E
:1052A00002B0BDEC028B04B0BDE8704000F056B90E
:1052B000ACF14054A4F17F641C430BD0022404EAF7
:1052C000AC7444EAD27405439FED538B9FED542B8D
:1052D00007D015E09DED040B51EC100B00F0D0F958
:1052E00042E0002C11BF012C9DED040B02B0BDEC7F
:1052F000028B04BF04B070BD022C38D0032C3BD00D
:105300000B439FED491B9FED4A0B0AD0B14218D1C8
:10531000B04209D121F0804120F0804007910590F2
:105320000FE0002A15DA10E0434B7B44002C08BF45
:1053300093ED000B0DD0012C10D0022C17D0032CB4
:105340001AD0B0421DD1002A03DAB0EE410AF0EEC5
:10535000610A02B0BDEC028B04B070BD93ED000B8E
:1053600051EC100B02F0B6FF41EC100BF1E7B0EE80
:10537000480AF0EE680AECE7B0EE420AF0EE620A84
:10538000E7E7401A00153C28C8BF8DED000B19DC7B
:10539000BCF1000FBEBF10F13C0F9FED290B8DED4E
:1053A000000B0FDB9DED060B53EC102B9DED040B5A
:1053B00051EC100B03F074F801F076F800F060F98E
:1053C000CDE90001002C08BF9DED000BC1D0012CE0
:1053D00010D0022C9FED1C0B53EC102B9DED000BFD
:1053E00051EC100B0DD003F089FB53EC182B03F09C
:1053F00085FBB9E7019880F0004001909DED000B1E
:10540000A7E703F07BFB53EC182B03F09FFAABE705
:105410000000F07F00000000182D4454FB210940DB
:10542000182D4454FB2109C0182D4454FB21F9BF09
:10543000182D4454FB21F93FFA47000000000000FA
:105440000000000000000000075C143326A6A13C09
:1054500070B504462DED028B4D1E00EBC500B0EE7D
:10546000408AF0EE608A90ED000B35F0060017D010
:1054700053EC182B51EC100B03F06AF941EC100BB4
:105480006D1E04EBC50090ED001B51EC100B53ECAE
:10549000112B02F05DFF41EC100B35F00600E7D157
:1054A000022D36D0042D1CD0062D1CBFBDEC028B66
:1054B00070BD53EC182B51EC100B03F049F994ED2F
:1054C0000A1B53EC112B02F043FF53EC182B03F093
:1054D0003FF994ED081B53EC112B02F039FF41EC1E
:1054E000100B53EC182B51EC100B03F031F994ED29
:1054F000061B53EC112B02F02BFF53EC182B03F07F
:1055000027F994ED040B53EC102B02F021FF41EC32
:10551000100B53EC182B51EC100B03F019F994ED10
:10552000021B53EC112B02F013FF53EC182B03F06A
:105530000FF994ED001B53EC112B02F009FFBDECA9
:10554000028B41EC100B70BD10B553EC102B51ECDD
:10555000100B02F0FDFE41EC100B10BD10B553EC2A
:10556000112B51EC100B02F0F3FE41EC100B10BDAF
:105570009FED050B10B553EC102B51EC100B02F006
:105580008FFF41EC100B10BD000000000000000078
:105590009FED050B10B553EC102B51EC100B03F0E5
:1055A000D7F841EC100B10BD000000000000001007
:1055B00030380A2801D201207047002070470000CF
:1055C000F0B52DED028B83B006460F4600256846E8
:1055D00000F084FF002447E056F8241057F82420F8
:1055E000881A002801DB014600E0414200EE101A53
:1055F000B8EEC00ADFED200A80EE208A684600EB94
:10560000840090ED000AB5EEC00AF1EE10FA18D051
:10561000684600EB8400D0ED000A88EE200AF7EE21
:10562000000A70EE608AB0EEE80A1448D0ED090A6C
:10563000B4EEE00AF1EE10FA15DD0120A0400543BA
:1056400011E00E4890ED070AB4EEC80AF1EE10FA28
:1056500006DC90ED080AB4EEC80AF1EE10FA02D2A8
:105660000120A0400543641C032CB5DB284603B091
:10567000BDEC028BF0BD0000000080470C8E0008DE
:1056800010B541EC100BFFF77FFC51EC100B10BD77
:1056900010B562480068401C604908600846006810
:1056A00003287DDB5E4890ED070AB5EEC00AF1EEF7
:1056B00010FA09DD5B4890ED070AB5EEC00AF1EE7D
:1056C00010FA01DDFEF778FA574801780068401CAF
:1056D000554A106001F00100E8BB5448008800EE14
:1056E000900AF8EE600AB0EE600A514802F059FDE7
:1056F0004E48408800EE900AF8EE600AB0EE600A6C
:105700004C4802F04EFD4C48007800EE100AB8EE0E
:10571000400A474801F06CFA484880ED000A4848C2
:10572000007800EE100AB8EE400A424801F060FA34
:10573000444880ED000A01464048FEF747FA3F48DA
:1057400090ED000A364802F02CFD3E4890ED000A2C
:10575000344802F026FD384800783B490968401A71
:105760003A4908603648007839490968401A394989
:10577000086031480078344908603148007834497D
:105780000860324890ED000AB8EEC00A244802F0E2
:105790000BFD2A4880ED000A2E4890ED000A00E03B
:1057A00026E0B8EEC00A1F4802F0FEFC254880ED56
:1057B000000A294890ED000A284880ED000A284890
:1057C00090ED000A274880ED000A1C4890ED000A81
:1057D00001F0EEF9204880ED000A1A4890ED000A29
:1057E00001F0E6F91E4880ED000A00200B49086030
:1057F000FCF7CAFA1C4A92ED000ABCEEC00A10EE91
:10580000102A91B2194A92ED000ABCEEC00A10EEBD
:10581000102A90B2FEF72EFD10BD000034000020CB
:1058200064020020840200204000002020000020AC
:1058300024020020440200206400002044000020D4
:1058400065000020480000204C000020540000208B
:1058500050000020580000203800002028000020C0
:105860003C000020300000202C00002024000020FC
:105870002DE9F0410446E07800F0C006E07800F041
:105880003F05607800F0010098B1EF102846E91755
:1058900005EB5171C910A5EBC101491C01F0FF08CE
:1058A0000B48006820B10A484146026838469047D4
:1058B00000BF607800F0080030B10548406818B1BA
:1058C000B011034A516888470020BDE8F08100000C
:1058D000B802002038B5044664B120208DF80000DD
:1058E00028208DF8010030208DF8020038208DF836
:1058F000030004E0A32204216846FAF769FE6A4621
:10590000042140F69E2002F06FFB01F059FF38BDE4
:105910003EB5044602208DF80000CA208DF8010033
:10592000E3208DF8020009208DF803006A46042167
:10593000682002F059FBA3208DF8000004F040001D
:1059400048B1C0208DF80100C8208DF80200C220A7
:105950008DF8030006E0A3208DF801008DF8020009
:105960008DF8030004F4C07048B1C4208DF8040021
:10597000CC208DF80500C6208DF8060006E0A32097
:105980008DF804008DF805008DF80600A3208DF831
:1059900007008DF808008DF809006A460A2140F6D4
:1059A000A72002F021FB04F0030018B120208DF89D
:1059B000000002E0D8208DF800006A46012140F680
:1059C000B62002F011FB04F0200018B1012000F015
:1059D000ADF802E0002000F0A9F804F4C07008B3AC
:1059E00004F4807060B1B2208DF800008B208DF837
:1059F0000100B6208DF802009B208DF803000BE01B
:105A0000B0208DF8000080208DF80100B4208DF8C2
:105A1000020090208DF803006A46042140F6A2207F
:105A200002F0E2FA04F0010020B3F8208DF8000043
:105A30006A4601214FF40B6002F0D6FAFA210720E2
:105A400000F02CFC072000F0F3FB012000F013FC19
:105A5000642000F003FD4FF4FA7000F012FDC8213D
:105A6000304800F0A3FB282000F0BCFB0A2000F027
:105A7000CCFB08E0D8208DF800006A4601214FF4E5
:105A80000B6002F0B1FA04F0020018B1D9208DF8D1
:105A9000000002E0D8208DF800006A46012140F2A3
:105AA0003D7002F0A1FA04F0040018B1012000F0EA
:105AB00069F802E0002000F065F804F0100018B169
:105AC0000120FFF707FF02E00020FFF703FF44F08B
:105AD00008001549488101F073FE002012498873BF
