:020000040800F2
:10000000800800203902000895220008931F00088C
:1000100091220008CD040008BD2C0008000000005B
:10002000000000000000000000000000FF230008A6
:10003000D104000800000000FD2300089D240008F2
:10004000530200085302000853020008530200083C
:10005000530200085302000853020008530200082C
:10006000530200085302000853020008530200081C
:10007000530200085302000853020008530200080C
:100080005302000853020008530200080000000059
:100090000000000000000000000000005302000803
:1000A00053020008692500085302000853020008A3
:1000B0007925000853020008530200085302000883
:1000C00053020008530200085302000853020008BC
:1000D00053020008AD2C0008530200080000000085
:1000E00053020008530200085302000800000000F9
:1000F00000000000000000000000000053020008A3
:1001000000000000530200085302000853020008D8
:1001100000000000000000000000000000000000DF
:10012000530200085302000853020008530200085B
:100130005302000800000000000000000000000062
:100140000000000000000000000000005302000852
:10015000530200085302000853020008530200082B
:1001600053020008530200080000000000000000D5
:10017000000000000000000000000000000000007F
:100180000000000053020008000000000000000012
:10019000530200085302000800F002F800F03CF897
:1001A0000AA090E8000C82448344AAF10107DA45D2
:1001B00001D100F031F8AFF2090EBAE80F0013F0E8
:1001C000010F18BFFB1A43F001031847CC2F0000A2
:1001D000EC2F0000103A24BF78C878C1FAD8520733
:1001E00024BF30C830C144BF04680C6070470000B1
:1001F0000023002400250026103A28BF78C1FBD830
:10020000520728BF30C148BF0B6070471FB502F0CE
:10021000B1FF1FBD10B510BD00F0CFF81146FFF7BC
:10022000F5FF02F0E3FE00F0EDF803B4FFF7F2FF94
:1002300003BC00F0F5F80000094880470948004772
:10024000FEE7FEE7FEE7FEE7FEE7FEE7FEE7FEE786
:10025000FEE7FEE704480549054A064B70470000E3
:100260005525000899010008800200208008002020
:10027000800400208004002053EA020C00F0698012
:100280002DE9F04B4FF00006002B1FBFB3FA83F5AA
:1002900003FA05F424FA05F65E4012BF1643B2FADB
:1002A00082F502FA05F4C5F120051EBF22FA05FC0D
:1002B00044EA0C04203556EA044C4FEA144418BFB3
:1002C000641C4FF000084FF00009904271EB030CE2
:1002D00039D3002919BFB1FA81F701FA07F6B0FA4C
:1002E00080F700FA07F6C7F120071EBF20FA07FCC7
:1002F00046EA0C062037B6FBF4FCA7EB0507103FD7
:1003000007F01F0BCBF120060CFA0BFB2CFA06F6BC
:1003100044BFB3460026202FA4BF5E464FF0000B1B
:100320005BEA060C08BF4FF0010B19EB0B09ABFBA6
:10033000027C48EB0608C01B06FB02CC0BFB03CC7F
:1003400071EB0C01C1E70B46024641464846BDE849
:10035000F08B13B54FF000004FF00001AFF30080B9
:10036000BDE81C4070474FF0000200B513469446AC
:100370009646203922BFA0E80C50A0E80C50B1F1FD
:100380002001BFF4F7AF090728BFA0E80C5048BF11
:100390000CC05DF804EB890028BF40F8042B08BFAF
:1003A000704748BF20F8022B11F0804F18BF00F8AB
:1003B000012B7047704770477047754600F02CF866
:1003C000AE4605006946534620F00700854618B042
:1003D00020B5FFF73FFFBDE820404FF000064FF08B
:1003E00000074FF000084FF0000B21F00701AC466A
:1003F000ACE8C009ACE8C009ACE8C009ACE8C00989
:100400008D46704710B50446AFF300802046BDE826
:100410001040FFF70ABF000000487047200200208C
:1004200001491820ABBEFEE726000200704700001D
:100430001F4890ED001A1F48D0ED001A31EE611AE6
:10044000B0EE410A1C480068401C01EE100AB8EEEC
:10045000C11A20EE011AF0EE081A81EE212A154881
:1004600090ED001A32EE011A144880ED001A14487B
:1004700090ED001A1348D0ED001A31EE611AF0EE3B
:10048000410A0D480068401C01EE100AB8EEC11A7E
:1004900020EE811AF0EE081A81EE212A094890ED2B
:1004A000001A32EE011A084880ED001A7047000069
:1004B0002C0000201C000020280000201800002034
:1004C00030000020240000202000002000BFFEE7B4
:1004D000704772B600BFFEE770B50446A56D00F028
:1004E00059F9064694F83500022808D08020606546
:1004F00000BF002084F8340000BF012070BD2068D8
:10050000006820F01600216808602068406920F02B
:10051000800021684861206C08B9A06C28B120686F
:10052000006820F00800216808602068006820F05A
:1005300001002168086010E000F02CF9801B0528FC
:100540000BD920206065032084F8350000BF00200F
:1005500084F8340000BF0320D0E72068006800F072
:1005600001000028E8D194F85C103F208840A86082
:10057000012084F8350000BF002084F8340000BF5B
:1005800000BFBBE7014691F83500022803D0802068
:10059000486501207047052081F83500086800682B
:1005A00020F001000A6810600020F3E7F8B5024669
:1005B0000B460025002400200021C7E0012606FA92
:1005C00001F51E6806EA0504AC4274D11E7906F0F6
:1005D0000306012E04D01E7906F00306022E13D165
:1005E00090684F000326BE40B0434F00DE68BE4017
:1005F00030439060506801268E40B0431E79C6F3A8
:1006000000168E40304350601E7906F00306032E1C
:1006100009D0D0684F000326BE40B0434F009E680B
:10062000BE403043D0601E7906F00306022E13D17F
:10063000CF0802F1200656F827004E07F70E0F26C6
:10064000BE40B0434F07FF0E1E69BE403043CF0887
:1006500002F1200646F8270010684F000326BE402E
:10066000B0431E7906F003064F00BE4030431060D1
:100670005E6806F44036002E67D000BF0026009664
:10068000344E366846F48046324F3E603E46366809
:1006900006F48046009600BF00BF2F4E8F0856F824
:1006A00027008E07370F0F26BE40B0432B4EB242B5
:1006B00002D1002615E048E0294EB24201D10126C0
:1006C0000FE0284EB24201D102260AE0264EB24285
:1006D00001D1032605E0254EB24201D1042600E0F7
:1006E00007268F073F0FBE4030431B4E8F0846F84A
:1006F00027001F4E3068A0435E6806F4801606B1DE
:1007000020431B4E3060361D3068A0435E6806F4FF
:10071000001606B12043164E361D3060144E361FAB
:100720003068A0435E6806F4003606B12043104EE0
:10073000361F3060361F3068A0435E6806F480368E
:1007400006B120430A4E083E3060491C1029FFF4D0
:1007500035AFF8BD4438024008380140000002407F
:100760000004024000080240000C02400010024059
:10077000083C014010B5426921EA020302EA010483
:1007800043EA0443836110BD0AB1816101E00B04B7
:100790008361704701480068704700000400002032
:1007A00070B504460CB9012070BD94F83D0028B91D
:1007B000002084F83C00204600F0DAF8242084F879
:1007C0003D002068006820F0010021680860206872
:1007D000006840F40040216808602068006820F448
:1007E00000402168086000F0A9FA05465C4960688D
:1007F000884206D85B48854201D2012007E00020EC
:1008000005E05948854201D2012000E0002001287E
:1008100000D1C9E75548B5FBF0F62068406820F0E4
:100820003F003043216848604D496068884201D8E4
:10083000701C07E04FF4967070434FF47A71B0FB70
:10084000F1F0401C2168096A21F03F01084321684A
:10085000086243496068884214D8681E616849008C
:10086000B0FBF1F0401CC0F30B00042801D20420BF
:100870003DE0681E61684900B0FBF1F0401CC0F328
:100880000B0034E0A06838B9681E616801EB4101D3
:10089000B0FBF1F0401C0AE0681E616801EBC10288
:1008A00002EB0111B0FBF1F0401C40F48040C0F3BA
:1008B0000B0008B901201AE0A06848B9681E6168F9
:1008C00001EB4101B0FBF1F0401CC0F30B000CE068
:1008D000681E616801EBC10202EB0111B0FBF1F08F
:1008E000401CC0F30B0040F4804040F400402168FD
:1008F000C9694CF6FF72914308432168C861D4E985
:10090000070108432168096821F0C00108432168F4
:100910000860D4E9031008432168896848F2FF326F
:100920009143084321688860D4E9050108432168A0
:10093000C96821F0FF0108432168C8602068006889
:1009400040F001002168086000202064202084F825
:100950003D000020206384F83E0000BF24E7000033
:10096000A086010080841E0000093D0040420F0067
:1009700010B586B00446142101A8FFF7F4FC1B490A
:10098000206888422FD100BF0020009018480068DE
:1009900040F00200164908600846006800F00200B6
:1009A000009000BF00BFC0200190122002900020E4
:1009B0000390032004900420059001A90D48FFF73F
:1009C000F5FD00BF0020009009481030006840F499
:1009D00000100749103108600846006800F4001054
:1009E000009000BF00BF06B010BD000000540040E2
:1009F0003038024000040240034800680349097887
:100A00000844014908607047040000200C000020E1
:100A100010B50D48006840F400700B4908600846A6
:100A2000006840F4806008600846006840F4807008
:100A30000860032000F0A6F80F2000F007F800F08F
:100A40002BF8002010BD0000003C024070B50446A9
:100A50000E4800784FF47A71B1FBF0F00C49096848
:100A6000B1FBF0F5284600F02FFC08B1012070BD65
:100A7000102C07D200222146501E00F045F80548F0
:100A8000046001E00120F2E70020F0E70C00002004
:100A9000100000200800002008B500BF00200090D2
:100AA0000E48006840F480400C4908600846006821
:100AB00000F48040009000BF00BF00BF0020009005
:100AC000081F006840F08050091F08600846006851
:100AD00000F08050009000BF00BF08BD44380240C5
:100AE0000146084600280DDB00BF00BF00F01F03D1
:100AF00001229A4043099B0003F1E023C3F800213F
:100B000000BF00BF00BF70472DE9F05F80460D4673
:100B10001646002702F0D4F8074639462A463346DF
:100B200001F00700C0F1070ABAF1040F02D94FF033
:100B3000040A01E0C0F1070AD14600F1040ABAF143
:100B4000070F02D24FF0000A01E0A0F1030AD446D9
:100B50004FF0010A0AFA09FAAAF1010A0AEA020A9E
:100B60000AFA0CFA4FF0010B0BFA0CFBABF1010B7C
:100B70000BEA030B4AEA0B042146404602F0A8F8B0
:100B8000BDE8F09F00BF00F00702064B19684FF662
:100B9000FF031940044B0B4343EA0221014B196048
:100BA00000BF70470CED00E00000FA0570B5044688
:100BB0000D460CB9012070BD5848006800F00700D0
:100BC000A84209D255490D700846006800F0070098
:100BD000A84201D00120EEE7207800F002000228B0
:100BE0001DD1207800F00400042805D14C4800688D
:100BF00040F4E0504A490860207800F008000828D6
:100C000005D14748006840F46040454908604448C1
:100C1000006820F0F000A16808434149086020788E
:100C200000F00100A8B36068012807D13C480838EB
:100C30000068C0F34040B8B90120BCE760680228F2
:100C400002D06068032807D1354808380068C0F32F
:100C5000406048B90120AEE7314808380068C0F369
:100C6000400008B90120A6E72D48006820F00300E5
:100C7000616808432A490860FFF78CFD064609E0D1
:100C8000FFF788FD801B41F28831884202D903209A
:100C900091E707E02248006800F00C006168B0EBC3
:100CA000810FEDD11D48006800F00700A84209D966
:100CB0001A490D700846006800F00700A84201D0EC
:100CC000012078E7207800F00400042807D11448B8
:100CD000006820F4E050E16808431149086020787A
:100CE00000F00800082808D10D48006820F4604092
:100CF000216940EAC1000A49086000F03FF808494C
:100D00000968C1F30311074A515CC84006490860ED
:100D100006480068FFF79AFE00204CE7003C0240BE
:100D2000083802407E310008100000200800002032
:100D300001480068704700001000002000B5FFF770
:100D4000F7FF04490968C1F38221034A515CC84096
:100D500000BD0000083802408E31000800B5FFF7E2
:100D6000E7FF04490968C1F34231034A515CC840B6
:100D700000BD0000083802408E3100082DE9F04720
:100D8000002400250026A1462548006800F00C003C
:100D900020B1042805D008283AD105E0DFF8849076
:100DA00039E0DFF8849036E01D48001F006800F04D
:100DB0003F041B48001F006800F4800078B11A4807
:100DC0001749091F0968C1F38811A0FB017001468A
:100DD000224600233846FFF74FFA05460EE0114839
:100DE0000F49091F0968C1F38811A0FB0170014672
:100DF000224600233846FFF73FFA05460848001F01
:100E00000068C0F30140401C4600B5FBF6F902E063
:100E1000DFF8109000BF00BF4846BDE8F087000033
:100E2000083802400024F40040787D01F8B50446FB
:100E30000CB90120F8BD207800F00100002874D022
:100E4000F948006800F00C0004280DD0F64800684E
:100E500000F00C00082813D1F348001F006800F4CC
:100E60008000B0F5800F0BD1EF4808380068C0F360
:100E70004040002859D06068002856D10120D9E7A9
:100E800000BF6068B0F5803F08D1E74808380068C7
:100E900040F48030E449083908601EE06068B0F52D
:100EA000A02F0DD1E0480838006840F48020DE49CA
:100EB000083908600846006840F4803008600CE09B
:100EC000D9480838006820F48030D74908390860CC
:100ED0000846006820F48020086000BF606890B178
:100EE000FFF758FC054606E0FFF754FC401B64285A
:100EF00001D903209EE7CC4808380068C0F3404081
:100F00000028F1D011E0FFF745FC054606E0FFF7A9
:100F100041FC401B642801D903208BE7C2480838F4
:100F20000068C0F340400028F1D1207800F00200B2
:100F300002285FD1BC48006800F00C0058B1BA48E4
:100F4000006800F00C0008281CD1B748001F00689A
:100F500000F48000B0B9B44808380068C0F340001D
:100F600020B1E068012801D0012063E7AE480838CD
:100F7000006820F0F800216940EAC100AA49083958
:100F8000086037E0E06800B30120A8490860FFF777
:100F900001FC054606E0FFF7FDFB401B022801D9D6
:100FA000032047E7A04808380068C0F34000002845
:100FB000F1D09D480838006820F0F800216940EA27
:100FC000C10099490839086014E000209749086079
:100FD000FFF7E0FB054606E0FFF7DCFB401B0228BD
:100FE00001D9032026E7904808380068C0F3400084
:100FF0000028F1D1207800F0080008282CD1606981
:10100000A8B101208A490860FFF7C4FB054606E045
:10101000FFF7C0FB401B022801D903200AE78248E2
:101020006C300068C0F340000028F1D014E00020CC
:101030007F490860FFF7AEFB054606E0FFF7AAFB15
:10104000401B022801D90320F4E677486C30006881
:10105000C0F340000028F1D1207800F004000428FB
:1010600070D1002770483830006800F0805090B987
:1010700000BF002000906C483830006840F080507D
:101080006949383108600846006800F080500090D7
:1010900000BF00BF01276748006800F48070B0B946
:1010A0006448006840F4807062490860FFF772FB92
:1010B000054606E0FFF76EFB401B022801D903201E
:1010C000B8E65C48006800F480700028F2D000BFE9
:1010D000A068012808D154486830006840F0010039
:1010E0005149683108601DE0A06805280DD14E48BF
:1010F0006830006840F004004B49683108600846D9
:10110000006840F0010008600CE047486830006863
:1011100020F001004449683108600846006820F06A
:101120000400086000BFA068A8B1FFF733FB0546C4
:1011300009E0FFF72FFB401B41F28831884202D9BA
:10114000032077E626E0384868300068C0F34000A6
:101150000028EED013E0FFF71DFB054608E0FFF77F
:1011600019FB401B41F28831884201D9032061E616
:101170002D4868300068C0F340000028EFD1012FEF
:1011800007D129483830006820F08050264938318E
:10119000086000BFA069002845D02348006800F01F
:1011A0000C0008285DD0A069022845D100201F4905
:1011B0000866FFF7EFFA054606E0FFF7EBFA401B7B
:1011C000022801D9032035E6174808380068C0F323
:1011D00040600028F1D1D4E907010843616A40EA80
:1011E00081110122A06AC2EB500041EA00412C208B
:1011F000005D41EA00600C49091F086001200B49AD
:101200000866FFF7C7FA054606E0FFF7C3FA401B7A
:10121000022801D903200DE6034808380068C0F30E
:1012200040600028F1D049E0083802400000474201
:10123000800E474200700040002021490866FFF7F9
:10124000A9FA054606E0FFF7A5FA401B022801D9D6
:101250000320EFE51B480068C0F340600028F2D18E
:101260002CE0A069012800D1E4E51648001D0668BD
:10127000A069012820D006F48001E06981421BD1D9
:1012800006F03F01206A814216D147F6C070304017
:10129000616AB0EB811F0FD106F440310122A06AD0
:1012A000C2EB5000B1EB004F06D106F070612C206C
:1012B000005DB1EB006F01D00120BBE50020B9E576
:1012C000000047420038024070B504462546681EBB
:1012D000B0F1807F01D301200FE0681E4FF0E021C4
:1012E00048610F214FF0FF3001F0F2FC00204FF079
:1012F000E021886107200861002070BD70477047B9
:1013000030B502460B4600BF92F83C00012801D1DF
:10131000022030BD012082F83C0000BF022082F88C
:101320003D00106844681068816824F070041868F3
:10133000044310684460144D1068A84213D010682C
:10134000B0F1804F0FD0114D1068A8420BD0104D56
:101350001068A84207D00F4D1068A84203D00E4D68
:101360001068A84205D121F0800158680143106837
:101370008160012082F83D0000BF002082F83C001F
:1013800000BF00BFC5E700000000014000040040AE
:1013900000080040000C00400040014010B5044629
:1013A0000CB9012010BD94F83D0028B9002084F844
:1013B0003C00204600F026F8022084F83D00211D64
:1013C000206801F0E1F8012084F8460000BF84F8AD
:1013D0003E0001213F20015540200155412001558B
:1013E00000BF00BF012084F8420043200155442083
:1013F00001554520015500BF012084F83D00002023
:10140000D0E7000038B504461D492068884218D14D
:1014100000BF002000901B48006840F001001949FF
:1014200008600846006800F00100009000BF00BF9F
:10143000002211461920FFF767FB1920FFF750FB28
:101440001DE02068B0F1804F19D100BF002000904E
:101450000C48001F006840F001000A49091F08609D
:101460000846006800F00100009000BF00BF0022A5
:1014700011461C20FFF748FB1C20FFF731FB38BD4D
:101480000000014044380240014691F83D00012827
:1014900001D001207047022081F83D00164B0868FA
:1014A000984213D00868B0F1804F0FD0134B0868F2
:1014B00098420BD0124B0868984207D0114B08682D
:1014C000984203D0104B086898420CD10868806895
:1014D00000F00702062A0CD00868006840F00100FE
:1014E0000B68186005E00868006840F001000B68B0
:1014F00018600020CEE7000000000140000400401A
:1015000000080040000C004000400140014691F8F6
:101510003D00012801D001207047022081F83D00E4
:101520000868C06840F001000B68D860164B086876
:10153000984213D00868B0F1804F0FD0134B086861
:1015400098420BD0124B0868984207D0114B08689C
:10155000984203D0104B086898420CD10868806804
:1015600000F00702062A0CD00868006840F001006D
:101570000B68186005E00868006840F001000B681F
:1015800018600020C8E7000000000140000400408F
:1015900000080040000C0040004001402DE9F041EF
:1015A00004460D46002700BF94F83C00012802D1F4
:1015B0000220BDE8F081012084F83C0000BF022039
:1015C00084F83D002068866826F0770626F47F467A
:1015D000206886602868502833D00CDC202850D042
:1015E00004DC00284BD0102851D149E0302849D0E4
:1015F00040284CD139E060282DD0702807D0B0F5B4
:10160000805F03D0B0F5005F41D10DE041E0D5E946
:1016100002136A68206801F01EF82068866846F0A8
:1016200077062068866034E0D5E902136A6820688E
:1016300001F011F82068806840F4804021688860DB
:1016400027E0EA686968206801F0D6F85021206830
:1016500001F00CF81DE0EA686968206801F0DFF825
:101660006021206801F002F813E0EA6869682068E8
:1016700001F0C2F84021206800F0F8FF09E000BF47
:1016800000BF00BF2968206800F0F0FF01E00127DB
:1016900000BF00BF012084F83D0000BF002084F897
:1016A0003C0000BF384684E7704770B504462068A8
:1016B000C5682068066906F00200022819D105F005
:1016C0000200022815D1401F2168086101202077FF
:1016D0002068806900F0030018B12046FFF7E4FF9E
:1016E00005E0204600F0C6F8204600F07AF9002018
:1016F000207706F00400042819D105F0040004281E
:1017000015D1C043216808610220207720688069D4
:1017100000F4407018B12046FFF7C6FF05E02046F0
:1017200000F0A8F8204600F05CF90020207706F0D1
:101730000800082819D105F00800082815D1C04371
:1017400021680861042020772068C06900F0030048
:1017500018B12046FFF7A8FF05E0204600F08AF800
:10176000204600F03EF90020207706F010001028F7
:1017700019D105F01000102815D1C0432168086167
:10178000082020772068C06900F4407018B1204616
:10179000FFF78AFF05E0204600F06CF8204600F0D5
:1017A00020F90020207706F0010048B105F0010083
:1017B00030B16FF0010021680861204600F088F91F
:1017C00006F08000802809D105F08000802805D12E
:1017D000C043216808612046FFF790FD06F04000F5
:1017E000402809D105F04000402805D1C0432168B8
:1017F0000861204600F08EF906F02000202809D16B
:1018000005F02000202805D1C0432168086120464A
:10181000FFF775FD70BD000010B586B004461421B9
:1018200001A8FEF7A0FD2068B0F1804F1CD100BFD9
:10183000002000900D48006840F001000B4908604E
:101840000846006800F00100009000BF00BF0320C0
:101850000190022002900020039004900120059046
:1018600001A90348FEF7A2FE06B010BD30380240C1
:101870000000024070472DE9F04104460D4616462F
:10188000002700BF94F83C00012802D10220BDE8E7
:10189000F081012084F83C0000BF36B1042E1BD03B
:1018A000082E31D00C2E5ED145E02946206800F08C
:1018B000E7FE2068806940F00800216888612068A0
:1018C000806920F0040021688861206880692969A6
:1018D00008432168886148E02946206800F000FF3D
:1018E0002068806940F40060216888612068806910
:1018F00020F480602168886120688069296940EA55
:1019000001202168886130E02946206800F01CFF32
:101910002068C06940F008002168C8612068C0697B
:1019200020F004002168C8612068C0692969084363
:101930002168C86119E02946206800F039FF206855
:10194000C06940F400602168C8612068C06920F463
:1019500080602168C8612068C069296940EA012067
:101960002168C86101E0012700BF00BF00BF00205F
:1019700084F83C0000BF384689E710B504460CB92E
:10198000012010BD94F83D0028B9002084F83C00E7
:10199000204600F025F8022084F83D00211D206833
:1019A00000F0F2FD012084F8460000BF84F83E00FC
:1019B00001213F200155402001554120015500BF24
:1019C00000BF012084F84200432001554420015506
:1019D0004520015500BF012084F83D000020D0E7DC
:1019E0007047704770B504460D4615B994F83E002F
:1019F0000BE0042D02D13F20005D06E0082D02D14E
:101A00004020005D01E04120005D012801D001205F
:101A100070BD1DB9022084F83E000EE0042D03D1F4
:101A200002213F20015508E0082D03D1022140206A
:101A3000015502E00221412001550122294620687A
:101A400000F0F8FD1D492068884201D1012000E026
:101A5000002028B12068406C40F4004021684864B0
:101A600016492068884213D02068B0F1804F0FD00B
:101A70001349206888420BD012492068884207D059
:101A800011492068884203D01049206888420CD14F
:101A90002068806800F00706062E0CD020680068D9
:101AA00040F001002168086005E02068006840F00F
:101AB0000100216808600020AAE700000000014042
:101AC0000004004000080040000C004000400140BD
:101AD00010B504460B492068884212D10A480078A4
:101AE00008B1012000E000200849097809B101216E
:101AF00000E00021084008B101F0FEF80448FFF7BB
:101B000005FD10BD000001405800002059000020D4
:101B1000B400002070477047704700002DE9F84F6F
:101B20000446206805682068C668206847694FF049
:101B30000009CA4605F00F09B9F1000F0AD105F0F6
:101B4000200038B106F0200020B1204600F0CAFE87
:101B5000BDE8F88FB9F1000F7CD007F0010018B98B
:101B600006F49070002875D005F0010030B106F43D
:101B7000807018B1606C40F00100606405F00400F2
:101B800030B107F0010018B1606C40F002006064F1
:101B900005F0020030B107F0010018B1606C40F0B0
:101BA0000400606405F0080048B106F0200010B998
:101BB00007F0010018B1606C40F008006064606CD0
:101BC000002846D005F0200028B106F0200010B112
:101BD000204600F087FE20684069C0F3801A606CE0
:101BE00000F0080010B9BAF1000F2DD0204600F027
:101BF00033FE2068406900F04000402820D100BF3B
:101C000000BF2168143151E8001F21F04000216815
:101C1000143141E80002002AF3D100BFE06B50B15B
:101C20007F48E16B0865E06BFEF7ACFC88B1E06BC8
:101C3000016D88470DE02046FFF76EFF09E009E0DF
:101C40002046FFF769FF04E02046FFF765FF00200C
:101C500060647DE7206B012878D105F01000002832
:101C600074D006F010000028FAD000BF00200090C9
:101C700020680068009020684068009000BF00BFA6
:101C80002068406900F04000402870D1E06B006897
:101C900040681FFA80F8B8F1000F58D0A08D404579
:101CA00055DDA4F82E80E06BC069B0F5807F43D08D
:101CB00000BF00BF21680C3151E8001F21F4807083
:101CC00021680C3141E80002002AF3D100BF00BFB7
:101CD00000BF2168143151E8001F21F00100216884
:101CE000143141E80002002AF3D100BF00BF00BF59
:101CF0002168143151E8001F21F04000216814319F
:101D000041E80002002AF3D100BF202084F84200FD
:101D10000020206300BF00BF21680C3151E8001F84
:101D200021F0100021680C3141E80002002AF3D1B3
:101D300000BFE06BFEF7D0FB02206063A08DE28D58
:101D4000801A81B22046FFF7E6FE0EE052E0A08D39
:101D500040450AD1E06BC069B0F5807F05D1022013
:101D60006063A18D2046FFF7D6FEF1E6FFE7A08D68
:101D7000E18D401A1FFA80F8E08DD0B3B8F1000F62
:101D800037D000BF00BF21680C3151E8001F21F49B
:101D9000907021680C3141E80002002AF3D100BFA5
:101DA00000BF00BF2168143151E8001F21F001007D
:101DB0002168143141E80002002AF3D100BF20203D
:101DC00084F842000020206300BF00BF21680C316E
:101DD00051E8001F21F0100021680C3141E8000299
:101DE000002AF3D100BF0220606341462046FFF77E
:101DF00092FEADE605F0800030B106F0800018B12B
:101E0000204600F023FFA3E605F0400030B106F0C5
:101E1000400018B1204600F055FD99E600BF97E656
:101E20004728000810B504460CB9012010BDA06970
:101E300000B100E000BF94F8410028B9002084F808
:101E40004000204600F02AF8242084F84100206851
:101E5000C06820F400502168C860204600F0C0FD32
:101E60002068006920F4904021680861206840697A
:101E700020F02A00216848612068C06840F40050C2
:101E80002168C86000206064202084F8410084F844
:101E900042000020606300BFC8E7000010B586B0B4
:101EA0000446142101A8FEF75EFA1F492068884203
:101EB00038D100BF002000901C48006840F010009E
:101EC0001A4908600846006800F01000009000BF42
:101ED00000BF00BF0020009014481438006840F094
:101EE00001001249143908600846006800F001003A
:101EF000009000BF00BF4FF4C0600190022002902C
:101F000000200390032004900720059001A90848B1
:101F1000FEF74CFB002211462520FEF7F5FD25209B
:101F2000FEF7DEFD06B010BD00100140443802404F
:101F30000000024070B504460D46164694F8420073
:101F400020280BD105B10EB9012070BD00202063FF
:101F500032462946204600F059FEF6E70220F4E713
:101F600070B5054607492868884204D106480478B8
:101F7000204600F091F9012203490448FFF7DAFFF7
:101F800070BD00000010014000000020440100204E
:101F9000704700BFFEE790ED000AF3EE0E0AB4EEC4
:101FA000E00AF1EE10FA04DDB3EE0E0A80ED000A4D
:101FB0000CE090ED000AFBEE0E0AB4EEE00AF1EE42
:101FC00010FA03D2BBEE0E0A80ED000A91ED000A72
:101FD000F3EE0E0AB4EEE00AF1EE10FA04DDB3EE11
:101FE0000E0A81ED000A0CE091ED000AFBEE0E0AEC
:101FF000B4EEE00AF1EE10FA03D2BBEE0E0A81ED68
:10200000000A704700B587B0142102A8FEF7ABF9AB
:1020100000BF002001903548006840F004003349BB
:1020200008600846006800F00400019000BF00BF8F
:1020300000BF002001900846006840F08000086062
:102040000846006800F08000019000BF00BF00BF9C
:10205000002001900846006840F001000860084632
:10206000006800F00100019000BF00BF00BF002029
:1020700001900846006840F00200086008460068C9
:1020800000F00200019000BF00BF00224FF4005199
:102090001748FEF779FB002206211648FEF774FB6D
:1020A0004FF400500290012003900490002005900E
:1020B00002A90F48FEF77AFA782002904FF4041034
:1020C00003900120049002A90B48FEF76FFA062046
:1020D000029011200390012004900020059002A995
:1020E0000448FEF763FA07B000BD00003038024034
:1020F00000080240000402400000024010B50B48F6
:102100000B4908600B484860002109488160C160A4
:102110004FF480410161002141618161C16101622F
:10212000FEF73EFB08B1FEF7D4F910BD00540040A5
:1021300060000020A086010000B587B00020039059
:10214000049005900690019002901548154908608A
:102150005320486000211348816042F20F71C16032
:102160000021016141618161FFF718F908B1FEF7B3
:10217000B0F94FF48050039003A90A48FFF70EFA14
:1021800008B1FEF7A6F900200190029001A90548C8
:10219000FFF7B6F808B1FEF79CF907B000BD0000E4
:1021A00000000140B400002000B58DB0002009906F
:1021B0000A900B900C90079008901C216846FEF73F
:1021C000D2F84FF080402349086053204860002136
:1021D0002048816044F61F61C16000210161816176
:1021E000FFF7DCF808B1FEF774F94FF4805009905E
:1021F00009A91848FFF7D2F908B1FEF76AF915489E
:10220000FFF7BBFB08B1FEF764F9002007900890C8
:1022100007A91048FFF774F808B1FEF75AF96020D3
:102220000090002001900290049000226946094825
:10223000FFF721FB08B1FEF74CF904226946054877
:10224000FFF719FB08B1FEF744F90248FFF7E4FA7B
:102250000DB000BDFC00002010B50B480B49086014
:102260004FF4E1304860002108488160C16001619D
:102270000C21416100218161C161FFF7D3FD08B1EB
:10228000FEF727F910BD00000010014044010020B6
:1022900000BFFEE700BFFEE770B505464D48007879
:1022A00070B92C2D0CD101204A4908704A48017898
:1022B0000078401C484A1070484820F8115088E0C7
:1022C00044480078012812D1122D10D1010244484F
:1022D000FEF750FA02203F4908703F480178007825
:1022E000401C3D4A10703D4820F8115071E03948BB
:1022F000007802283AD1384801780078401C364AE4
:102300001070364820F81150104600780A2801DA7B
:102310005B2D5ED103202F490870012031490870E0
:102320002D480078401F2D4911F810002E490870E3
:1023300029480078001F294911F810002B4908701E
:1023400025480078C01E254911F81000284908705A
:1023500021480078801E214911F810002549087095
:1023600025480068401C2449086032E0194800787C
:1023700003281FD118480078401E184931F8100072
:102380005B2807D1002017490870134908701149CC
:1023900008701EE000200F4908700F4908700024E3
:1023A00005E000200D4921F81400601CC4B20A2C7D
:1023B000F7DB0EE000200749087007490870002489
:1023C00005E00020054921F81400601CC4B20A2C65
:1023D000F7DB70BD5D0000205C0000200C020020D7
:1023E000000002405E00002058000020590000203C
:1023F0005A0000205B000020540000207047704706
:1024000000EE100AB8EE400ADFED1D0A70EE600A19
:102410009FED1C1A80EE810AF6EE000A30EE200ACB
:10242000DFED190A20EE200ABCEEC00A10EE102AD9
:10243000164B1A8000EE101AB8EE400ADFED140AAF
:1024400070EE200A9FED0F1A80EE810AF6EE000A68
:1024500030EE200ADFED0C0A20EE200ABCEEC00AA6
:1024600010EE102A0B4B1A80084A12880A4B1B6880
:102470005A63084A1288084B1B689A637047000029
:10248000666666400000B44200007A4450000020B6
:10249000CDCC2C4052000020FC00002010B5FEF7EF
:1024A000ABFA10BD00B593B0302107A8FDF75BFF74
:1024B000142102A8FDF757FF00BF00200190234818
:1024C000006840F08050214908600846006800F02C
:1024D0008050019000BF00BF00BF002001901C4849
:1024E000006840F440401A4908600846006800F45B
:1024F0004040019000BF00BF0120079000040890F9
:1025000002200D9041050E9119210F91A8211091E3
:10251000022111910421129107A8FEF787FC08B14E
:10252000FDF7D7FF0F2002900220039000200490B7
:102530004FF48050059000200690022102A8FEF77B
:1025400035FB08B1FDF7C5FF13B000BD40380240B0
:10255000007000400348006840F4700001490860C2
:102560007047000088ED00E010B50248FFF79DF8C5
:1025700010BD0000B400002010B50248FFF795F828
:1025800010BD0000FC00002010B50268224B9842EC
:102590000BD0B0F1804F08D0204B984205D0204B93
:1025A000984202D01F4B984203D122F070024B6830
:1025B0001A43194B984214D0B0F1804F11D0174BE9
:1025C00098420ED0164B98420BD0164B984208D02A
:1025D000154B984205D0154B984202D0144B9842A7
:1025E00003D122F44072CB681A4322F080034C6975
:1025F00043EA04028B68C3620B688362064B98420D
:1026000001D10B690363036843F0040303600123F2
:102610004361026010BD0000000001400004004062
:1026200000080040000C0040004001400044014010
:102630000048014030B501F01F05012404FA05F3FC
:10264000046A9C430462046A01F01F0502FA05F55E
:102650002C43046230BD30B50C46816821F47F41C3
:1026600042EA032525432943816030BD0A4681683B
:1026700021F0700142F007031943816070470000A8
:1026800030B5026A056A25F0010505624368846970
:1026900024F0700424F003040D682C4322F002029D
:1026A0008D682A430D4DA84206D100BF22F00802D2
:1026B000CD682A4322F00402084DA84207D123F432
:1026C000807323F400734D692B438D692B43436062
:1026D00084614D684563026230BD00000000014026
:1026E00030B5026A056A25F0100505624368846901
:1026F00024F4E04424F440740D6844EA052422F0F4
:1027000020028D6842EA05120E4DA84207D100BF93
:1027100022F08002CD6842EA051222F04002094D03
:10272000A84209D123F4806323F400634D6943EA8E
:1027300085038D6943EA8503436084614D68856341
:10274000026230BD0000014030B5026A056A25F41E
:10275000807505624368C46924F0700424F00304A2
:102760000D682C4322F400728D6842EA05220F4D59
:10277000A84207D100BF22F40062CD6842EA0522D8
:1027800022F48062094DA84209D123F4805323F436
:1027900000534D6943EA05138D6943EA051343600D
:1027A000C4614D68C563026230BD00000000014095
:1027B00030B5036A056A25F4805505624468C2692C
:1027C00022F4E04222F440720D6842EA052223F42A
:1027D00000538D6843EA0533064DA84204D124F422
:1027E00080444D6944EA85144460C2614D680564C3
:1027F000036230BD0000014030B50B461446026A4A
:10280000056A25F001050562816921F0F00141EAC0
:10281000041122F00A021A438161026230BD30B510
:102820000B461446026A056A25F0100505628169A7
:1028300021F4704141EA043122F0A00242EA03127D
:102840008161026230BD70B50446A56B0020E88549
:102850002846FFF761F970BD00BF00BF02680C3267
:1028600052E8002F22F4907102680C3242E8001303
:10287000002BF3D100BF00BF00BF0268143252E842
:10288000002F22F001010268143242E80013002BED
:10289000F3D100BF016B01290ED100BF00BF026858
:1028A0000C3252E8002F22F0100102680C3242E88C
:1028B0000013002BF3D100BF202180F8421000212B
:1028C0000163704710B504462068C06820F04000DE
:1028D0002168C860202084F841002046FFF758FB9B
:1028E000002010BDF8B504460025002694F84200EB
:1028F000222873D1A068B0F5805F0BD1206948B958
:10290000A66A20684068C0F308003080A06A801C76
:10291000A06214E0A56AA068B0F5805F03D0A0684B
:1029200028B9206918B920684068287004E0206838
:10293000406800F07F002870A06A401CA062E08D13
:10294000401E80B2E085002846D12068C06820F093
:1029500020002168C8602068C06820F48070216869
:10296000C8602068406920F001002168486120208B
:1029700084F8420000206063206B012826D10020EB
:10298000206300BF00BF21680C3151E8001F21F017
:10299000100021680C3141E80002002AF3D100BF89
:1029A0002068006800F0100010280AD100BF002045
:1029B000009020680068009020684068009000BF88
:1029C00000BFA18D2046FFF7A6F802E02046FFF7E2
:1029D000C7FA0020F8BD01E00020FBE70220F9E77C
:1029E0002DE9F84F04462068006920F44050E16862
:1029F0000843216808612169A068084361690843A8
:102A0000E169084300902068C06849F20C6188437E
:102A1000009908432168C8602068406920F440702C
:102A2000A16908432168486176492068884203D03B
:102A300075492068884203D1FEF790F9814602E08B
:102A4000FEF77CF98146E069B0F5004F6CD10220B9
:102A50006168A0FB015003461920A9FB00700146E4
:102A60002A463846FDF708FC6421B0FBF1F04FEA36
:102A7000001A02206168A0FB01510B461920A9FB36
:102A800000712A463846FDF7F7FB8346022061684D
:102A9000A0FB015003461920A9FB00712A463846C5
:102AA000FDF7EAFB6421B0FBF1F000EBC00101EBA4
:102AB0000010ABEB8000322101EBC0006421B0FBC1
:102AC000F1F000F0F8000AEB400A02206168A0FB78
:102AD000015003461920A9FB007001462A463846DA
:102AE000FDF7CAFB834602206168A0FB0150034644
:102AF0001920A9FB00712A463846FDF7BDFB642169
:102B0000B0FBF1F000EBC00101EB0010ABEB80007B
:102B1000322101EBC0006421B0FBF1F000F00700AE
:102B20005044216888606AE004206168A0FB01507D
:102B300003461920A9FB007001462A463846FDF7D6
:102B40009BFB824604206168A0FB015003461920CC
:102B5000A9FB007001462A463846FDF78DFB64212B
:102B6000B0FBF1F000EBC00101EB0010AAEB80001C
:102B7000322101EB00106421B0FBF1F000F0F00A0B
:102B800004206168A0FB017003461920A9FB0051D5
:102B90003A462846FDF770FB6421B0FBF1F00AEBE2
:102BA000001A04206168A0FB01510B461920A9FB03
:102BB00000712A463846FDF75FFB834604206168B2
:102BC000A0FB015003461920A9FB007001462A46CC
:102BD0003846FDF751FB6421B0FBF1F000EBC0017A
:102BE00001EB0010ABEB8000322101EB00106421FF
:102BF000B0FBF1F000F00F00504421688860BDE8A0
:102C0000F88F0000001001400014014010B5034689
:102C100099629A85DA8500205864222083F8420060
:102C2000186928B11868C06840F480701C68E060BA
:102C30001868406940F001001C6860611868C0684D
:102C400040F020001C68E060002010BD014691F8B3
:102C50004100212828D18868B0F5805F0BD1086930
:102C600048B90A6A1088C0F308000B685860086AFF
:102C7000801C086205E00B6A581C086218780B6813
:102C80005860C88C401E80B2C88458B90868C068B3
:102C900020F080000B68D8600868C06840F04000F1
:102CA0000B68D860002070470220FCE710B502488E
:102CB000FEF734FF10BD00004401002000BFFEE716
:102CC00002480068C0F30220704700000CED00E0ED
:102CD00010B5002804DB0A07130E054A135406E05A
:102CE0000A07140E034A00F00F031B1FD45410BD33
:102CF00000E400E018ED00E010B559480068401C01
:102D0000574908600846006804287DDB554801786B
:102D10000068401C534A106001F00100E8BB5248B3
:102D2000008800EE900AF8EE600AB0EE600A4F48A4
:102D300000F0D5F94C48408800EE900AF8EE600AA1
:102D4000B0EE600A4A4800F0CAF94A48007800EE3E
:102D5000100AB8EE400A454800F0D0F8464880ED29
:102D6000000A4648007800EE100AB8EE400A4048D3
:102D700000F0C4F8424880ED000A01463E48FFF7E3
:102D80000AF93D4890ED000A3E4800F0A8F93C4899
:102D900090ED000A3C4800F0A2F9364800783B4923
:102DA0000968401A3A490860344800783949096886
:102DB000401A394908602F480078344908602F4884
:102DC000007834490860324890ED000AB8EEC00A35
:102DD0002C4800F087F9284880ED000A2E4890ED35
:102DE000000AB8EEC00A284800F07CF9244880EDBB
:102DF000000A2A4890ED000A294880ED000A294877
:102E000090ED000A284800E014E080ED000A1A481E
:102E100090ED000A00F04EF8204880ED000A1848B6
:102E200090ED000A00F046F81E4880ED000A0020F0
:102E30000B490860FDF7FCFA1C4A92ED000ABCEE53
:102E4000C00A10EE102A91B2194A92ED000ABCEEA7
:102E5000C00A10EE102A90B2FFF7D2FA10BD00009F
:102E60002800002034000020140000208C010020E5
:102E7000AC0100205800002038000020590000203C
:102E80003C000020CC010020EC010020400000208C
:102E900048000020440000204C0000202C000020AE
:102EA0001C00002030000020240000202000002012
:102EB00018000020DFED0E0AB4EEE00AF1EE10FA81
:102EC00003D8DFED0B0AB0EE600ADFED0A0AB4EEBC
:102ED000E00AF1EE10FA03DBDFED060AB0EE600A5D
:102EE000DFED050A70EEC00AB0EE600A7047000020
:102EF00000000CC200000C420000B442F0EE400A98
:102F000090ED000A30EE600A80ED020A90ED020AB0
:102F1000B8EE001AB4EEC10AF1EE10FA10DB90ED33
:102F2000020AB0EE001AB4EEC10AF1EE10FA07D8A8
:102F30009FED2D0A80ED020A9FED2B0A80ED070A16
:102F400090ED020ABAEE041AB4EEC10AF1EE10FADC
:102F50002BDD90ED020AB2EE041AB4EEC10AF1EED6
:102F600010FA22D290ED070A90ED021A30EE010A13
:102F700080ED070A90ED070AB2EE041AB4EEC10A1A
:102F8000F1EE10FA04DDB2EE040A80ED070A0CE05F
:102F900090ED070AB2EE041AB4EEC10AF1EE10FA8F
:102FA00003D2BAEE040A80ED070A90ED040A90ED10
:102FB000021A20EE010A90ED051AD0ED071A01EE73
:102FC000210A90ED021AD0ED031A31EE611AD0ED0C
:102FD000061A01EE810A80ED010A90ED020A80EDE9
:102FE000030A90ED010A704700000000FDF710FD94
:102FF000FFF758FAFFF706F8FFF79EF8FFF77EF89D
:10300000FFF7D2F8FFF728F92348FEF77FFA2348A5
:10301000FEF73AFA00212148FEF7E4FC04211F489C
:10302000FEF7E0FC40F2B4501C490968486340F2E6
:10303000FA501A4909688863012219491948FEF7AC
:1030400079FF9FED191ADFED190A9FED190A19484A
:1030500000F03EF89FED141ADFED140A9FED140AFC
:10306000154800F035F89FED151ADFED140A9FEDB5
:10307000140A144800F02CF89FED101ADFED0F0A27
:103080009FED0F0A104800F023F87F200F490880B9
:10309000488000BFFEE70000B4000020FC000020D4
:1030A0000000002044010020CDCCCC3D6F12833BBA
:1030B000EC51383E8C010020AC01002000000000E3
:1030C0009A998940CC010020EC01002014000020D6
:1030D00080ED040AC0ED050A80ED061A704780ED08
:1030E000000A7047F0EE400A90ED000A30EE600AE8
:1030F00080ED020A90ED020AB6EE001AB4EEC10AA3
:10310000F1EE10FA0CD290ED020ABEEE001AB4EE07
:10311000C10AF1EE10FA03DD9FED150A80ED020AF7
:1031200090ED070A90ED021A30EE010A80ED070AD1
:1031300090ED040A90ED021A20EE010A90ED051AB6
:10314000D0ED071A01EE210A90ED021AD0ED031A14
:1031500031EE611AD0ED061A01EE810A80ED010A06
:1031600090ED020A80ED030A90ED010A704700001D
:10317000000000004FF04070E1EE100A70470000C0
:103180000000000000000102030406070809000017
:103190000000010203040000B83100080000002014
:1031A00060000000D4010008183200086000002010
:1031B00020080000F00100080000000000000000EE
:1031C00010000000010000000024F40000000000D6
:1031D00000000000000000000000000000000000EF
:1031E00000000000000000000000000000000000DF
:1031F00000000000000000000000000000000000CF
:1032000000000000000000000000000000000000BE
:083210000000000000000000B6
:040000050800019955
:00000001FF
